:10000000C8870020B5530000473E0200A1530000FE
:10001000A1530000A1530000A15300000000000004
:10002000000000000000000000000000C5540000B7
:10003000A15300000000000035540000A15300004F
:10004000D556000081770100D5560000D556000036
:10005000D5560000D5560000D5560000D5560000F4
:10006000D5560000D5560000D5560000D5560000E4
:10007000D5560000D5560000D5560000D5560000D4
:10008000D5560000D5560000D5560000D5560000C4
:10009000D5560000D5560000D5560000D5560000B4
:1000A000D5560000D5560000D5560000D5560000A4
:1000B000D5560000D5560000D5560000D556000094
:1000C000D5560000D5560000D5560000D556000084
:1000D000D5560000D5560000D5560000D556000074
:1000E000D5560000D5560000D5560000D556000064
:1000F000D5560000D5560000D5560000D556000054
:1001000053B94AB9002908BF00281CBF4FF0FF317E
:100110004FF0FF3000F00CB8ADF1080C6DE904CEE3
:1001200000F022F8DDF804E0DDE9022304B07047B6
:10013000704700BF10F8012B11F8013B012A28BFBE
:100140009A42F7D0D01A7047034611F8012B03F8F2
:10015000012B002AF9D17047034613F8012B002A1E
:10016000FBD1181A013870472DE9F04786468C46B6
:100170000846089E154674461946002B40F0C2807A
:100180008542B2FA82F245D94AB1C2F1200300FA9F
:1001900002FC2EFA03F3954043EA0C0C94404FEA1C
:1001A000154EA8B2BCFBFEF8230C0EFB18CC08FBC6
:1001B00000F943EA0C43994528D9EB1808F1FF37B9
:1001C00004D2994502D9A8F102072B44A3EB0903F5
:1001D000A4B2B3FBFEFC0EFB1C330CFB00F044EAA4
:1001E0000344A04214D92C190CF1FF3304D2A042CD
:1001F00002D9ACF102032C44241A43EA07401EB191
:10020000D440002334607360BDE8F0874746DDE7E3
:100210006346F1E792BB431B01214FEA154EAFB293
:10022000B3FBFEFC200C0EFB1C330CFB07F840EA72
:100230000343984562D9EB180CF1FF3004D298457E
:1002400002D9ACF102002B44A3EB0803A4B2B3FB28
:10025000FEFC0EFB1C330CFB07F744EA0344A742E9
:100260004ED92C190CF1FF3304D2A74202D9ACF1BC
:1002700002032C44E41B43EA0040C0E7C2F1200320
:1002800020FA03F1954090402EFA03F303434FEA1E
:10029000154EAFB2B1FBFEFC0EFB1C10190C0CFB93
:1002A00007F841EA0041884504FA02F422D96918A6
:1002B0000CF1FF3004D2884502D9ACF10200294488
:1002C000A1EB08019BB2B1FBFEFC0EFB1C110CFB69
:1002D00007F743EA01439F420ED9EB180CF1FF31B7
:1002E00004D29F4202D9ACF102012B44DB1B41EA4C
:1002F000004192E76046E3E76146F7E76046A3E71F
:100300006346B7E7834206D916B9002108467BE762
:10031000C6E900E0F9E7B3FA83F78FB9834201D366
:10032000724508D8BEEB020460EB030301209C4633
:100330001EB9002168E73846FAE7C6E9004CF8E73D
:10034000C7F1200CBB4022FA0CF41C432EFA0CF12E
:1003500020FA0CF3B84001434FEA14490EFA07F5AE
:10036000B3FBF9F81FFA84FE09FB18300B0C08FBED
:100370000EFA43EA00439A4502FA07F240D9E3181D
:1003800008F1FF3004D29A4502D9A8F102002344B3
:10039000A3EB0A0389B2B3FBF9F809FB183308FB96
:1003A0000EFE41EA03418E452CD9611808F1FF3356
:1003B00004D28E4502D9A8F10203214443EA004049
:1003C000A0FB0298A1EB0E014145CE46434602D365
:1003D00006D14D4504D2B9EB020E68EB0403013897
:1003E000002EA6D0B5EB0E0261EB030101FA0CFC66
:1003F00022FA07F34CEA0303F940C6E9003198E713
:100400004046C5E74346D9E7F7B5002101AA40F6C3
:10041000034006F029F90446002869D10198C36811
:100420001B788BB9BFF35B8FB94B1A68BFF35B8F37
:1004300002F00902BFF35B8F53E8001F43E800247A
:10044000002CF9D1BFF35B8F05F07EFA01AA0021E1
:1004500041F2030006F008F90446002848D1019A49
:10046000AC4DD168D1F80100D1F8051005F1780341
:1004700003C3104605F068FA214601AA41F20100C3
:1004800006F0F2F8044698BB0198C3685A7885F8DC
:1004900070205A88A5F872201A7985F87120B3F86F
:1004A0000720A5F87420B3F80530A5F8763005F0DC
:1004B0004BFA214601AA41F2020006F0D5F80446A3
:1004C000B0B9019FFA6805F18006531C41321868E3
:1004D0005968344603C4083393422646F7D1384658
:1004E00005F032FA95F87C305B0604D46FF0120404
:1004F000204603B0F0BD01AA002142F2030006F03D
:10050000B3F804460028F3D1019B834EDA68D2F891
:100510000100D2F8051003C6184605F015FA214669
:1005200001AA42F2020006F09FF804460028DFD13B
:10053000019CE368B3F8012091B249B1D97839B18F
:10054000A5F80421DA78114606F1280029F08BF885
:10055000204605F0F9F995F87C601F2316F0200677
:10056000A5F8203118D1022140F66D4005F0E6FED5
:100570000446002800F0C48002210C3023F003FD63
:100580000123037046702146324640F66D4006F066
:100590006BF804460028ABD195F89C301F0712D5A4
:1005A00001AA002142F21C0006F05EF80446002871
:1005B0009ED10198C368D3F80120D3F80530C5E96E
:1005C000382305F0C1F995F8D8309E0624D50DF1F1
:1005D0000201684624F046F90446002888D1042127
:1005E00042F2240005F0AAFE0646002800F08880AA
:1005F00004210C3023F0C7FCBDF800300380BDF8A7
:10060000023043802246314642F2240006F02CF8A4
:10061000044600287FF46CAF95F8D8305C0610D5FE
:1006200001AA002142F22A0006F01EF80446002822
:100630007FF45EAF0198C3685B7885F8223105F0DE
:1006400083F9082142F2010005F078FE04460028F3
:1006500056D008210C3023F096FC95F8D81011F0F4
:10066000400F024640F2022308BF032388074CBF15
:1006700043F02C0043F00C0095F8D9308F0648BFAA
:1006800040F0400013F0090F18BF40F40060CE079F
:1006900048BF40F01000002123F0D6FE2146002282
:1006A00042F2010005F0E0FF044600287FF420AF8D
:1006B00095F87C30B5F80411980624D4C9B901AA7C
:1006C00041F2050005F0D0FF044600287FF410AF8A
:1006D000B5F80431019C4BB9E368B3F80120A5F8E3
:1006E00004219A880D48114628F0BDFF204605F0E8
:1006F0002BF9082140F6014005F020FE044678B9A8
:100700006FF06804F4E60029F3D16FF00404EFE61B
:1007100014010020400000201801002048010020A2
:1007200008210C3023F02FFC95F8D830D907024669
:1007300053BF4FF000512CA1D1E90001284823F00C
:1007400083FE2146002240F6014005F08DFF04465D
:1007500000287FF4CDAE014601AA4FF6014005F016
:1007600083FF044620BB019805F0EEF8214601AA5C
:100770004FF6024005F078FF0446C8B90198C368F7
:10078000B3F80130A5F8C13005F0DEF895F8C130B6
:100790005B070DD501AA21464FF6034005F064FF23
:1007A00030B90198C3685B7885F8C03005F0CCF8A3
:1007B00024F02FFA044600287FF49AAE08F040F89F
:1007C000044600287FF494AEEB79002B3FF490AE02
:1007D0000821044823F09AFD05F096FE88E600BF44
:1007E0001088000214010020908800020080002080
:1007F0002DE9F843D0E90738856903EB08042F3465
:10080000A5420F46164619D8DFF87080A3FB0801F1
:1008100017A3D3E90023FFF773FC0346601BA0FB7B
:10082000080123F07F4412A3D3E90023FFF768FCFB
:1008300020F07F403C603060BDE8F883DFF83C90FA
:100840000BA3D3E90023A5FB0901FFF759FC20F016
:100850007F4409480A2106A3D3E90023E8FB0901E4
:10086000FFF74EFC20F07F403C603060BDE8F8832D
:100870008D49FD1A0700000000166BF100CA9A3B73
:100880009FED097B0E4B0F4A0F4983ED007B9FEDD7
:10089000087B82ED007B9FED087B0C4B002281EDF5
:1008A000007B1A600EF0BCBAFFFFFFFFFF1F0000C5
:1008B00000000000000000001F0000000000000019
:1008C000D0010020181C0020C8010020C4380020DE
:1008D000002800F05F812DE9F04FB54C94F86A20B4
:1008E00012F001058DB040F0A68194F82500FF2399
:1008F00000F0030084F8263016F0CAFB94F86A0072
:10090000420727D494F8292094F8353004EB82026A
:1009100004EB8303D66AD3F8388086B1A448314605
:1009200010F058F833785B0605D506210BF044FA31
:10093000002800F082819E48414610F04BF8337841
:1009400013F00E0F40F0B780236A93B10C200DB066
:10095000BDE8F08F2A4604F16B01C0F3C00016F029
:100960000FFDFF2884F82600CCD0284616F0AAFBFD
:10097000C8E70DF055FD8146002800F06C810DF0B0
:100980005BFD8246002800F0638110F029FB0546DC
:10099000002800F06281D0F894004FF6FF732B8698
:1009A00005F11C0B002800F04E8105F1840105F1D2
:1009B00088020BF00DFAB5F882307E4A23F4EF631B
:1009C00023F0070343F48C7343F00103A5F882304E
:1009D0001346D2F80120C5F8AB21C5F8B12113F8B0
:1009E000012B9B88A5F8AF31A5F8B53195F8AA3150
:1009F00002F0010262F3000362F3410385F8AA31B9
:100A000095F8433003F03F0363F07F0385F84330EC
:100A100095F89A3023F0070385F89A3095F8483016
:100A200023F00F03002785F848304FF4C023C5F8A2
:100A300098312846C5E91577C5F89470A5F89870DF
:100A400085F84570EF86C5F83A70EF65A5F89E7198
:100A5000A5F8947112F0ACFC85F86071C5F864914A
:100A600010F0AAFD95F8A43160F3020385F8A431D3
:100A700010F0A8FD95F8A43160F3C50385F8A43102
:100A800095F8903167F3410385F8903101212846AC
:100A900011F0F0F905F1E00012F062FAC4E9189AD9
:100AA000C4F820B0C5E905772F70ED6117F09CFC04
:100AB000002840F0C48094F824300121C3F342039D
:100AC0000DF12B008DF82B300BF020FB0246002897
:100AD00062D098F8011030460FF036FD31233649C8
:100AE000A360364BB4F86870A0FB01010025C01864
:100AF00041F107012CA3D3E90023C4E90555257072
:100B00006560E560FFF7FCFA20610CF0B3FD00F1D1
:100B100009083FB9357805F00F05A5F10105B5FACB
:100B200085F56D0994F82400236965F3000010F041
:100B3000010584F824004BD0214A0992002010605E
:100B40000225204A204F04930BAE01930592032106
:100B5000CDE90200069443460090089607972A467E
:100B60000B950CF089FC31460DF0EEFCA0B917494D
:100B700005914AF2D8330093CDE90300CDE9010095
:100B80000797089606944346012203210B950CF023
:100B900057FC43E00FF028BC236A002B3FF4D6AE8D
:100BA0000FF0DEFBD2E600BF8D49FD1A0700000002
:100BB000FC38002049E6020000CA9A3B8C49FD1A25
:100BC000F0380020C5050100D9D70000A9000100B8
:100BD000274A2848049303F247130694029591216B
:100BE0001360A7FB000301FB0731234B0793234B43
:100BF00005934FF6FF730992022703930BAE1AA3D6
:100C0000D3E900230B970896FFF77AFA4346CDE91C
:100C100000503A46284603210CF02EFC31460DF0D8
:100C200093FC0028B8D194F86A300120034384F87B
:100C30006A3016F00FFA002089E6122087E60FF0DE
:100C40008FFB032083E605F18C00C5F89400ACE629
:100C500048460DF0EBFB072079E650460DF0F2FB1D
:100C600048460DF0E3FBF6E78D49FD1A070000004A
:100C7000F0380020002AE784D9D70000C50501001C
:100C800070B590F824308AB0C3F342030D46044691
:100C900001210DF1230016468DF823300BF036FAB2
:100CA0007178024628460FF04FFC1F491F4AA0FBEF
:100CB0000131981841F1070119A3D3E90023FFF787
:100CC0001FFA23699842054621D21B1A002201927D
:100CD000174A0293174BA21AA3FB02320221920970
:100CE00000230A4409AE099113490591CDE9033364
:100CF0000321D2B20696009318460CF01DFC314633
:100D00000DF022FC38B9256100200AB070BDFBD976
:100D1000C21A0023DBE70C200AB070BDAFF30080DD
:100D20008D49FD1A0700000000CA9A3B8C49FD1A44
:100D3000FC38002089888888D9D70000000000008E
:100D40002DE9F04F06468DB08A46012002219946D2
:100D5000154619F0E7FA00220B90022101200BF052
:100D600087F83B494FF4DC7230460BF011F8C71C92
:100D7000384B0093FFB201964B463A4601210020C2
:100D80000CF034FC10F0FD0F0ED0334A33493448D8
:100D900040F68F0322F0D0FD002383F31188BFF3C8
:100DA0006F8F0323184602DF2E4CA5FB044526A3B4
:100DB000D3E9002320462946FFF7A2F908960696B4
:100DC00033690493284B20F07F48A8FB0331E01AD5
:100DD000264B07934FF00702254B059302FB0811A2
:100DE0004FF6FE7365EB010103934FF47A72002313
:100DF000FFF786F94FF0000BCDE90180CDF800A098
:100E00004B463A46012158460CF01AFB10F0FD0FF4
:100E10000DD0114A1149124840F6A40322F08CFD6E
:100E20008BF31188BFF36F8F0323184602DF0B9BF0
:100E300013B90DB0BDE8F08F0122022110460DB0AC
:100E4000BDE8F04F0BF014B88D49FD1A0700000003
:100E5000201C0020810F01003CC5020000C60200DA
:100E60001CC0020000CA9A3B8D49FD1A210F0100E7
:100E700035650100000000002DE9F0418468228EF4
:100E80004FF6FF739A428CB045D00546204612F0CB
:100E90002DFD2B7D012B00F02281022B00F015810E
:100EA000002B00F0F48094F86061002E40F0108177
:100EB0002B8A678F94F94320CDE90A6673B3002A21
:100EC000C0F25A810023A4F89A31AA7C238FFD181E
:100ED00002F003030135012BADB23BD0B4F89E31D3
:100EE000002B00F005819D4280F059815B1B9BB275
:100EF0000022062BA4F89E31628740F2F68094F916
:100F000043309342C0F25081002326E09DF8271021
:100F1000204610F073FC0CB0BDE8F081002AB8BF89
:100F200084F88561238FAA7CFD1802F00303013544
:100F3000012BADB20ED0B4F89A31002BCED0AB421B
:100F400040F23C815B1BA4F89A31B4F89E31002B2F
:100F5000C9D102E00023A4F89E3194F8482063F33D
:100F6000820284F8482029460DF12702204612F01B
:100F70005BFA7430CAD0B4F898312BB1AB4240F26E
:100F8000EC805B1BA4F89831B4F894312BB1AB42E0
:100F900040F2DA805B1BA4F89431658F16B9AF423A
:100FA00000F0C9800135ADB294F8DD3013F00107CF
:100FB00031D1DDE90A130A46002B40F0CC8000292C
:100FC00000F0BB801F461846228EE4690694CDE9E6
:100FD000035603329A4D0290CDE90017D2B2012197
:100FE000002005950CF0A8FA10F0FD0F93D00DF03D
:100FF000D5FA84428FD0934A934994484FF4AE6314
:1010000022F09AFC002383F31188BFF36F8F032330
:10101000184602DF7FE794F943206FF30003002AAC
:1010200084F8DD307FDB94F88200C0F3C00100F06B
:10103000070016F0F1FFB4F87A20B4F878301344C2
:10104000628D03F23F1313440344814A8148072110
:10105000E3FB0021104678A3D3E90023FFF750F803
:10106000DDE90A1320F07F4220692261904235BFFA
:10107000171A801A002000270A46002BA4D157EA2D
:10108000010CA1D1002858D019461F469CE794F8BE
:101090009A3003F01803182B7FF405AFA18EB4F833
:1010A00096218B1D9A42C4BF931F5B1AB4F892110C
:1010B000CCBF9BB21346994200F09C80A4F89231B9
:1010C000A4F89431A4F89821EDE63D2684F86061F7
:1010D000314620460CB0BDE8F04110F08FBB002334
:1010E000A4F89831A4F89431DDE60126334634E7BC
:1010F000628E052A97BF013240F2E2434FF4FA7341
:1011000092B203FB02F2B4F89C3142F2107101FB7F
:101110000323013BB3FBF2F39BB2A4F89E31002BF7
:101120007FF4E1AE19E794F88300012100F0070095
:1011300016F074FF7FE7354636E7002D43D00027D1
:10114000114638463B463FE70023A4F89431204639
:1011500012F00CFA21E7384636E70DF0B3F90146F4
:10116000A0B30023A4F89831238EC3801B230371FE
:1011700000680DF079F907E794F885316BB3013B0E
:1011800084F8853104F1E008404611F02BFFB8B334
:10119000404611F027FFB8B30023638792E6082189
:1011A000204610F02BFBB6E6A7B9D4F888315A08D0
:1011B00013F0010336D1C4F88821A5E63E2120466C
:1011C00010F01CFBA7E6002EB9D1A4E60123A4F879
:1011D0009831D9E613460126BFE60AAA0BA928468C
:1011E000FFF706FBDDE90A231343CBD0237884F80D
:1011F0008531C7E7B4F8981100297FF454AE5FE752
:10120000FF2010F0B7FAC3E70246D4E921010AF043
:10121000F7FD0028C0D194F848301B0744BFA38EC7
:1012200063874FE642F000421E46C4F888213B46E1
:1012300093E600BFAFF300808D49FD1A0700000060
:10124000DD0E01003CC502007CC602001CC002008D
:101250008C49FD1A00CA9A3B2DE9F04F87B0CDE9C1
:101260000423BDF8442003780292BDF84820BDF85D
:1012700040A0BDF84C90878F019104460392002B4B
:1012800000F0D480013FBFB2A368D4F81CB1A7EB33
:10129000090292B2002B00920ADAE168626823F038
:1012A000004391422CBF8B449344A360ABEB030BF0
:1012B00094F88200C0F3C00100F0070016F0ACFE05
:1012C000658E052D40F2AA80009B15FB03F5ADB29B
:1012D00040F2E248BAF1050F40F29480B4F87A2067
:1012E000B4F87830134403F2D51303447A4A7B48A8
:1012F0000721E3FB00214FF09613A36296231046CB
:10130000A38573A3D3E90023FEF7FAFE564620F027
:101310007F4040F2E24308FB05F103FB06F6B1FB18
:10132000F6F81FFA88F5206106FB05F08142A84611
:101330005AD2401A694966A3D3E90023A0FB0101F0
:10134000FEF7DEFE20F07F408344E38EB4F82421D4
:101350001344994494F84330A9EB0709C844DB09C6
:10136000A4F8368069D15E4A5E495F4840F667134B
:1013700022F0E2FA002585F31188BFF36F8F032373
:10138000184602DF3746029BA386039BA4F89C31D4
:1013900031462046A4F832A012F082F8534BA18EB9
:1013A0003344881DB3FBF6F39AB29042A4F8962119
:1013B00004D2C1F57F41FA310A4492B2019BA4F8EC
:1013C000922113B10023A4F89E315B463A46294688
:1013D0002046FFF7B5FC94F8903143F0010384F800
:1013E000903107B0BDE8F08F091A3C4838A3D3E923
:1013F0000023A1FB0001FEF783FE20F07F40ABEB52
:10140000000BA2E74FF096130AF10106A3629623A0
:10141000A385B6B20A204FF4FA737CE7009B01352E
:1014200015FB03F5ADB24FF4FA7853E7C38E1F44B2
:10143000B0F824311F44BFB226E7E26C0099636D17
:1014400002FB1133636517F01FF8074694F8840117
:10145000C0F3420017F01AF8074406FB07F7244BC5
:1014600007F5742707F23F27A3FB0737BF0C636D0F
:10147000E76405FB07F072080344963A934228BFDD
:101480001346C4E91423049B144D40F2E24808FBC0
:1014900003F3E3650023A0FB0501C4F88C310CA322
:1014A000D3E90023FEF72CFE124B059AABEB000BA1
:1014B000A3FB0230800A08FB00F0A0FB050104A397
:1014C000D3E90023FEF71CFEF71B20F07F455AE707
:1014D0008D49FD1A070000008C49FD1A00CA9A3B8D
:1014E0003CC50200F4C002001CC002007FC3C90159
:1014F00083DE1B435917B7D12DE9F04F04460B6823
:10150000077F1668D3F800A0638CD0F81E0095B052
:1015100015464A7CADF84C30FF2AC7F38013884645
:101520000D9212908DF83F3076D199461A4612AB43
:1015300093E803000DF1400B1090ADF84410F8094A
:101540000AF1710127680A915B460C900B9710F025
:101550003FF80A99002847D196F8AA310C9A0A90C8
:1015600069F3410362F3000386F8AA311098BBF8CF
:101570000430C6F8B101A6F8B531DAF87130C6F812
:10158000AB318B88A6F8AF31E38D94F83010A97297
:101590002B81D4F82A306B60D4F83A30C5F8223069
:1015A00005F1220094F83E30037105210AF0AEFDEA
:1015B00095F8273000F03F0060F3050385F82730E9
:1015C00094F83F30C3F3040185F82810A18EE98216
:1015D000012803F01F0389B206D91B3303F01F0350
:1015E0000B2B01D80A9A59BB0022CAF8142095F88F
:1015F0002C300B9862F3000385F82C30E568012647
:10160000214626710CF024FF28682E7129460CF023
:101610002BFF15B0BDE8F08F0DF1400B10460DF11A
:101620003F015A4615F094FA9DF83F90277F09F143
:1016300002095FFA89F98DF83F9009F001027EE70F
:10164000D8F800305A60E38E2B83EB8A40F2E249EF
:1016500009FB03F71146638E0A93304611F034FFFD
:1016600094F83F3096F884215B0963F3430286F8CF
:10167000842116F009FF0C9096F88401C0F3420013
:1016800016F004FF0C9BC04A034407FB03F303F569
:10169000742303F23F23A2FB03239B0C2B637B08E1
:1016A000963B6B6394F8313009FB03F36B64238F33
:1016B000A6F89C313946304611F0F2FEB34BB44ADD
:1016C000C6F8A0213B44B3FBF7F39AB2A6F89621E3
:1016D000298B881D824204DDC1F57F41FA310A441D
:1016E00092B2A6F892216B68C6F88831234613F8A7
:1016F0001C2FC2F34019DA0700F103814FF4807305
:10170000A3839AF8260015F04FFF04F12B0300285D
:1017100000F0F380626AC4F82B20228D9A800D9B22
:10172000FF2B00F02681BDF84C301298A4F8293028
:10173000C4F82500BBF80430A4F8233010989DF8B5
:101740003F30C4F81F00A377EB8A63862B8BA386F8
:10175000B6F89C31E38696F88431C3F3420384F8EB
:10176000383030460FF048FCA882E08021460B98C4
:10177000D8F804400CF06CFEAB8AE3801C23D4F84C
:1017800000B02371B9F1000F40F0D28084F81C90B2
:10179000214658460CF068FE95F86700B5F85C9055
:1017A000B5F85E40012100F0070016F037FC4C440C
:1017B00004F2D514DFF8E4910444834675484FF0F1
:1017C00096130721C5E90333E4FB09013123002403
:1017D000B36074606AA3D3E90023F460FEF790FC61
:1017E00020F07F4030612D6B0A9A7D1BD8F80C7079
:1017F00040F2E24303FB02770221224601200AF075
:1018000037FB50460FF0A2F807F2B3470246A7EBAA
:101810000B07A7FB0901174659A3D3E90023FEF7DD
:101820006FFCCDF804A0D8F808305B49009120F097
:101830007F49BA1C3A3BD2B24B44012120460BF0FF
:10184000D5FE012800F081809AF82430DB0767D4A8
:1018500030460FF0D1FB514BA5FB035A044648A379
:10186000D3E9002328465146FEF74AFCD8F8083051
:101870004B4A0792A3F13A084A4B069620F07F475D
:10188000A7FB0331E81A484B05934FF4F57308930F
:1018900033694FF0000BCDE903B34FF0070303FBAF
:1018A00007116AEB01014FF47A720023FEF728FC5E
:1018B0000334E4B2CDE90170CDF8009043462246EE
:1018C000012158460BF0BCFD10F0FD0F0DD0374A3A
:1018D0003749384840F2EB1322F02EF88BF3118889
:1018E000BFF36F8F0323184602DF01220221104647
:1018F0000AF0BEFA15B0BDE8F08FC4F82B0098804E
:101900000DE72A4A2C492B48FD2322F015F8002325
:1019100083F31188BFF36F8F0323184602DFEDE6D0
:10192000002301220093184611460BF01DFE8FE79D
:1019300095F8273043F0400385F82730281D14F030
:1019400011FF4FF00109288520E70CF027FE8245A2
:101950003FF47AAF154A1949164840F2922321F014
:10196000EBFF84F31188BFF36F8F0323184602DF68
:101970006AE70022C4F82520A4F82920DAE600BF8F
:101980008D49FD1A0700000083DE1B437FC3C90198
:10199000404B4C008C49FD1AF564010000CA9A3B8B
:1019A000C16401008D49FD1A356501005CCB020060
:1019B00000C602001CC0020010C30200B8CB020027
:1019C00010B5334C3349002304F1FF3C14F83320A5
:1019D000072A02EB820E05D811F83E206FF345125C
:1019E00001F83E201CF833206FF300020CF833207E
:1019F0000133082BEAD1284A284C002313700A78B7
:101A000063F300020A7091F8282063F3000281F862
:101A1000282091F8502063F3000281F8502091F8BB
:101A2000782063F3000281F8782091F8A02063F316
:101A3000000281F8A02091F8C82063F3000281F829
:101A4000C82091F8F02063F3000281F8F02091F8AB
:101A5000182163F3000281F81821114A9FED0A7BD7
:101A60001370104B83ED007B0F4B236028B1BDE852
:101A700010400E490E4827F0D5BEBDE810400C4876
:101A800027F0DEBEAFF30080FFFFFFFFFFFFFFFF89
:101A900021410020E03F0020BA5B0020F03E002002
:101AA000B95B0020C01F0020A0BB0D00B97201006F
:101AB000901F002000000000F0B5C468636883B088
:101AC0000546002B64D117F0ADFF082017F0D0FFBA
:101AD0000021084617F0BEFF00222521082017F03C
:101AE000FBFF474B019301A817F0E2FF454940F285
:101AF0005B6018F093F8237AC3F3420262F3061393
:101B00002046237216F0DEFE15F02AFE58BB637ADB
:101B10009B071FD127682E68384616F019FA06442D
:101B20006A6806F10901012018F0C0F918F07EFA80
:101B300020460EF017FF811C3246C9B2384616F017
:101B400015FA054678BB204616F0AAF988B9002098
:101B500003B0F0BD012015F071FA4178821C0078C5
:101B600018F044F9D6E7607A10F0030018BF01209E
:101B7000F1E7254A2549264840F2294321F0DCFEB9
:101B800085F31188BFF36F8F0323184602DFDEE76A
:101B900093F82C309A0796D01E48214617F000FF84
:101BA00017F0E6FFD3E7184A1B49194840F21143E2
:101BB00021F0C2FE194B0721A5FB030301FB0531F0
:101BC0000DA3D3E90023FEF79BFA154902461548F9
:101BD00021F0B2FE002585F31188BFF36F8F032338
:101BE000184602DF1048214617F0DAFE17F0C0FF52
:101BF0006FF08B00ACE700BF00CA9A3B000000000A
:101C0000D6BE898E55555500B4CF0200F0C10200F2
:101C10001CC00200FD800100F4C002008D49FD1AC5
:101C200064D0020038D00200998401000000000056
:101C30002DE9F041C468A28A4FF6FF739A4282B040
:101C400000F0DF80054617F081F92B89628B208C2C
:101C5000A3831A4492B2104494F82730E28380B2EE
:101C6000411C21845E064FF00001618304F12201D2
:101C700000F1A18003F03F000B4694F8281000907B
:101C800004F1290014F026FD0646D4E90C31A28B9C
:101C900002FB0333A26B1344E26B8B4294BFD21856
:101CA00052188A4228BF0A46E263616C226C94F89B
:101CB00067301144616494F87E2094F82C10C3F3CB
:101CC000020363F3061112F004024FF0000384F8DC
:101CD0002C10A363236478D017F0A4FE082017F01B
:101CE000C7FE201D17F0E4FE2389A17A40F25B6055
:101CF00043EA014117F092FF304616F049F92146B8
:101D0000594817F04DFEA08918F0C4F894F86620E1
:101D100094F86700C2F3C003002102F0070200F04C
:101D2000070017F0E1FF204617F0BAF927682E6880
:101D3000384616F00DF906446A6806F109010020DC
:101D400018F0B4F8804618F045F9002018F05CF956
:101D5000E36B94F8670003F12F02636C00F0070057
:101D6000012103EB420517F0F5FE4544054494F8C4
:101D7000670000F00700022825D004280CBF4FF4AC
:101D8000BC73282301211D4417F0E6FE284418F0F7
:101D900013F9A18A03313246C9B2384616F0E6F883
:101DA0000546002834D1204616F07AF8D0B9002034
:101DB00002B0BDE8F0810A4603F03F03218D14F024
:101DC000D5FC064661E71823DCE7D4E91A010AF0DE
:101DD00017F8002880D194F87E3043F0040384F88B
:101DE0007E3079E7214A224922484FF4B07321F02E
:101DF000A3FD85F31188BFF36F8F0323184602DF1D
:101E0000D5E71D48214617F0CBFD17F0B1FECEE710
:101E1000164A1A4917484FF4AB7321F08DFD184B41
:101E20000721A5FB030301FB05310DA3D3E9002323
:101E3000FEF766F913490246134821F07DFD00259F
:101E400085F31188BFF36F8F0323184602DF0F4815
:101E5000214617F0A5FD17F08BFE6FF08B00A7E76A
:101E600000CA9A3B0000000019930100F0D0020064
:101E7000F0C102001CC00200FD800100F4C002009D
:101E80008D49FD1A44D1020038D00200D9800100EA
:101E9000014825F07DBB00BF84A70200012B07B5D8
:101EA0000FD112780848012A14BF002257228DF85A
:101EB000072000210DF1070225F0DDFA03B05DF8DF
:101EC00004FB6FF08500F9E784A70200012B13B52E
:101ED000144611D10A480DF10702002125F0F0FA4D
:101EE000002807DB9DF80730A3F157025342534106
:101EF0002370002002B010BD6FF08500FAE700BF2C
:101F000084A7020001481EF0E3BD00BFD8020020F4
:101F100007B527F014FE4FF47A72A0FB020302FB10
:101F20000131C00B074A40EA4140106000234FF4E2
:101F300000420548CDE900231FF07CFC002003B0DF
:101F40005DF804FBE0230020300A0020014B1878E4
:101F500000F024BABE5A0020044B1A78824202D004
:101F60001870FFF7F3BF0020704700BFBE5A002073
:101F700008B527F0E4FD4FF47A72A0FB020302FBE0
:101F80000131084AC30B126843EA41439B1A47F2E6
:101F90003052934204DDBDE808400120FFF7DCBF6A
:101FA00008BD00BFE023002008B527F0C8FD4FF4AE
:101FB0007A72A0FB020302FB0131C00B044A40EA23
:101FC00041401060BDE808400020FFF7C5BF00BFDA
:101FD000E0230020014B1878704700BFBE5A002054
:101FE000F8B5044610B900252846F8BD0378002B43
:101FF000F9D00F4E0F4FBE420FD30D4EBE42F2D25C
:10200000306827F03DF930B1356821462868FEF781
:1020100091F80028E8D00436F0E7306827F030F96E
:1020200018B135682B68A342DED00436E3E700BF61
:10203000BCFB0200D8FB020070B5194C194D8CB0E6
:102040000022002303A920461EF0D2F908B10CB0EB
:1020500070BD2B68059E5868DDE9031220F0D1FEA3
:102060000028EDDBFF238DF81830B6FA86F35B0904
:1020700007908DF8203027F062FD4FF47A72A0FBB4
:10208000020302FB0131C00B40EA4140C90B8DE85D
:10209000030006ABCDE90A010FCB00F099F9CFE7B9
:1020A000380B0020CC2400201FB50A4C2468A468FB
:1020B00084420DD183F00103CDE901120393064858
:1020C0000022002301A91EF035F904481EF000FD8E
:1020D00004B010BDCC240020380B0020BC2400200C
:1020E0001FB50023CDE90233044B8DF80C0001A885
:1020F000019320F0BFFE05B05DF804FBCCAF0200F9
:10210000014B036036207047E423002038B50446B5
:1021100028B3144D2B6883421FD02BB1986818B197
:1021200083685B6803B198470F49104B8C4214BF1A
:10213000ED2100213622002020F07DFE00280DDB5D
:10214000A0682C6048B1836809491B6898472B68D0
:10215000986883689B6803B19847002038BD6FF08A
:102160001200FBE7CC240020B8AF0200E4230020DB
:10217000A920000038B5054648B90648FFF7C6FF54
:10218000041E02DB2846FFF7ABFF204638BD6FF088
:102190001504FAE7B8AF0200F7B50C4615460D492D
:1021A00001AA1E4621F00DFE68B1019B6BB9012CFE
:1021B0000DD1094F224639463046A847002802DD96
:1021C0003878FFF7D7FF03B0F0BD0020FBE76FF0D2
:1021D0001500F8E76BE20200C00900200148FFF794
:1021E00095BF00BFB8AF020008B50749074827F000
:1021F000BDFA074A002342F8043B0133362BFAD1DB
:10220000BDE80840FFF7EABF39200000BC240020E9
:10221000E423002030B51D4C04EB00148FB060683F
:1022200083684021DB68984768BB04AD0490686010
:102230006189606883682A461B69984718BB95E8DE
:1022400003000123069307AB83E803006389ADF81D
:10225000243027F074FC4FF47A75A0FB053205FB9F
:102260000121DB0B43EA4143C90BCDE90A31237B52
:102270008DF830300EAB13E90F008DE80F0006AB80
:102280000FCB00F0CBF80FB030BD00BFF80200203C
:10229000F8B50D4D0024012606FA04F3D943BFF327
:1022A0005B8F55E8002F02EA010045E80007002F88
:1022B000F7D1BFF35B8F134202D02046FFF7AAFF8E
:1022C0000134052CE8D1F8BDD0240020064901EBEB
:1022D0000012506830B183689B68114608310BB119
:1022E000024A1847704700BFF8020020F1220000A0
:1022F00010B5104C0C1B402C1BD8241127F0F0FA01
:1023000090B1BFF35B8F01230B4AA34052E8000F4B
:10231000184342E800010029F8D1BFF35B8F07485A
:10232000BDE810401EF0D4BB2046BDE81040FFF7CA
:1023300071BF10BD00030020D0240020E80200205F
:1023400005289ABF024B03EB40000020704700BFF6
:10235000B4090020F8B50F4D0F4E761B07460C460A
:1023600005EBC105C6F3C706A64201DC00200CE060
:102370002A683B689A4209D13C716B6838461B68F1
:10238000984718B1431E012BF0D9F8BD0134083528
:10239000EAE700BF18ED020070ED02001FB5002350
:1023A000CDE90233044B8DF80C0001A8019320F015
:1023B00061FD05B05DF804FBD0AF02000268034B7D
:1023C0009A420CBF08300020704700BFD0AF020017
:1023D00084B030B589B00CAC84E80F0000230193C1
:1023E0000CAD084B00930FCD02AC0FC495E8030071
:1023F00084E80300684620F03DFD09B0BDE83040A8
:1024000004B07047D4AF02000268034B9A420CBF7D
:1024100008300020704700BFD4AF020084B030B550
:102420008BB00EAC84E80F00002301930EAD084B77
:1024300000930FCD02AC0FC495E80F0084E80F00A5
:10244000684620F017FD0BB0BDE8304004B070477F
:10245000D8AF02000268034B9A420CBF083000203C
:10246000704700BFD8AF02001FB50023CDE902338B
:10247000044B8DF80C0001A8019320F0FBFC05B083
:102480005DF804FBDCAF020082B038B504A981E836
:102490000C00054611481DF0A3FD0446A0B16B6871
:1024A000012B0CD0022B05D0A3B9BDE8384002B0F7
:1024B00020F012BD20F017FD00282046F5DCBDE815
:1024C000384002B020F001BD6FF00400BDE8384094
:1024D00002B070476FF08500F8E700BF31E30200FB
:1024E00082B010B502A981E80C0004460B481DF02B
:1024F00077FD78B16368022B04D00020BDE810405E
:1025000002B0704720F0EFFC0028CCBF0020012073
:102510006060F2E76FF00400F0E700BF31E3020013
:102520000D4A52F82030013342F820300B4A012383
:10253000117883400B430A490978DBB2137023EA10
:1025400001030849084A097850780B43181A537058
:1025500018BF0120704700BFD4240020C15A0020BA
:10256000BF5A0020C05A0020CE09002010B5114AE1
:1025700052F82030002B19DD013B42F820300E4A82
:102580002BB913780121814023EA010313700B4812
:102590000B4B047810780B4A5978127820EA040023
:1025A00010435870401A18BF012010BD6FF015007D
:1025B000FBE700BFD4240020C15A0020BF5A0020EE
:1025C000CE090020C05A0020044A0123127883401B
:1025D000D8B213401B1A584258417047C15A0020C4
:1025E00010B5084B084A1870084B51781C78084BF6
:1025F0001B7823EA040318435070401A18BF0120C7
:1026000010BD00BFC05A0020CE090020BF5A0020D4
:10261000C15A0020074B00221A70074B074A19784D
:10262000074B50781B7823EA0103181A537018BF20
:1026300001207047C05A0020BF5A0020CE09002058
:10264000C15A0020A0F1E003072B03D82030C0B20C
:10265000FFF766BF064B062213F8011F19B1013AB6
:10266000FAD10020704718700028F8D0F9E700BFB1
:10267000D0090020A0F1E003072B10B405D82030CA
:102680005DF8044BC0B2FFF771BF0023064A19463C
:1026900012F8014F0133A04208BF1170062BF7D189
:1026A00000205DF8044B7047D0090020A0F1E00342
:1026B000072B03D82030C0B2FFF786BF064A00239D
:1026C00012F8011F884204D00133062BF8D10020F4
:1026D00070470120704700BFD0090020024B002244
:1026E0001A605A60704700BFCF090020B0F5805FC4
:1026F00010B510D20949002301EB4302B2F80140A2
:1027000024B10133062BF7D1002010BDA2F801003F
:102710000028F6D0F8E76FF08500F6E7C109002041
:1027200030B50023074C194604EB43020133B2F8DD
:102730000150854204BF51709170062BF4D10020E6
:1027400030BD00BFC1090020024B00221A605A6050
:102750009A607047C2090020074A002302EB430138
:10276000B1F80110814204D00133062BF6D10020CC
:1027700070470120704700BFC10900200048704722
:10278000CE09002000487047C109002082B070B512
:1027900004A900680A9E81E80C00144620F0ABFAF8
:1027A00005690598336871683638221813B355F8EF
:1027B0003200034405EBC20044680C4484EAE47030
:1027C0001049A0EBE4708842C1BF0F4894FBF0F1C0
:1027D0005B1800FB114408994FF4B4700988B0FBF2
:1027E000F1F093FBF0F100FB113345F8323005EBCB
:1027F000C2035C600A32002045F82210BDE8704038
:1028000002B070473F420F0040420F002DE9F047F1
:102810008446164E164FDFF85C8000208A46034639
:102820004FF001094FEA531E03F01F0257F82E40E4
:1028300009FA02F2144212D07469D8F81850D8F884
:102840001C10651941EBE474AC457AEB0404A3BF9A
:1028500057F82E4024EA020247F82E2001300133B7
:10286000262B06F12C06DDD1BDE8F08774B00200FE
:10287000E0260020A810002070B5094B094D1E78F5
:1028800000241C702EB1284620F0F7FA0134B4421F
:1028900001DB304670BD2035284620F0EBFAF5E725
:1028A000C35A0020A81000202DE9F04F40488BB0FB
:1028B00026F0C6FF3F4B0026C3E900663E4BB3F946
:1028C00000A047F6FF739A455DD03C4F88234FF632
:1028D000FF7203FB06F0C419395A91424AD13849B4
:1028E000DFF8ECB00A789BF8009001320A703549A5
:1028F0001FFA8AF32C223B5202FB03130830B3F970
:1029000010803149C845A8BFC84628EAE87252017C
:10291000384427F0ABFC4FEA4813DFF8ACC0A4F80A
:102920000280C6460593CE4532DB882303FB06773B
:1029300000223B6A06920AF13B020792234AD9170A
:10294000C2E900311F4ACDE908312C230AFB032AD2
:10295000A9EB080901238BF8009002930AAB13E955
:10296000030000228DE80300079B0AF11C0020F001
:1029700006FA04E00136042EABD1FFF77DFF0E4AC4
:1029800047F6FF7313800BB0BDE8F04FFFF774BF3D
:10299000059B0CEB03050FCD64460FC495E80F00B3
:1029A0000EF1010E84E80F000CF1200CBBE700BF14
:1029B000580E0020E0260020BE090020880E0020CE
:1029C000C25A002074B00200A810002000000020AD
:1029D000C35A0020184B194919482DE9F0414FF608
:1029E000FF721A80A3F88820A3F81021A3F8982179
:1029F00026F018FF134ADFF850E000230127590999
:102A000003F01F05B2F910C0890007FA05F59046DA
:102A1000002407E058F8040B0EEBC00001344658C0
:102A20002E4346506445F5D30133262B02F12C0288
:102A3000E5D10020BDE8F081880E00206D2B00005C
:102A4000580E002074B00200302500202DE9F84314
:102A5000404B414E1C78D6E90027E4BB02F100430D
:102A600001333B4335D06FF0004527F068F84FF451
:102A70007A77A0FB070307FB0131C30B43EA41430D
:102A8000AB424FEAD131A14160DA27F058F8A0FB00
:102A9000070307FB0131C00B40EA4140281A64EBF1
:102AA000D131C90341EA504140F2E733C003C018B5
:102AB0004FF47A724FF0000341F10001FDF720FB63
:102AC00002460B4625481EF071F80028A8BFC6E94B
:102AD0000054BDE8F88300242149DFF88CE06FF052
:102AE000004523464FF0010858095EF820C003F066
:102AF0001F0008FA00F010EA0C0F08D048694FEAEE
:102B0000E07CA8427CEB0409BCBF05466446013367
:102B1000262B01F12C01E7D11249D1E90631ED183C
:102B200044EB0104BC4208BF9542D2D06FF0004391
:102B30009C4208BFB5F1FF3F97D100230022C6E9B0
:102B400000230648BDE8F84326F07ABE002213466B
:102B5000B8E700BFC35A0020500E0020580E0020D6
:102B600074B00200A8100020E026002038B5114CF7
:102B7000D4E9003213431CD026F0E1FF03460D4692
:102B8000D4E900014FF47A74A3FB043204FB05225C
:102B9000DB0B43EA424383424FEAD2328A4108DBED
:102BA000FFF734FE08B9FFF77FFEBDE83840FFF7B6
:102BB0004DBF38BD500E00202DE9F04F9BB00446AC
:102BC000FFF722FC002800F07D812046FFF71CFC67
:102BD0000546002800F09181067A002E00F0C3809F
:102BE000AE4EAF4F3478D0E904830493002C43D128
:102BF000D0F80490DFF8C4A2DFF8ACB220F041FBBB
:102C000007EBC9034FF001090593A64909FA00F340
:102C100006932246059B4FEA521E53F82E0002F0FF
:102C20001F0309FA03F3184217D0886910B1069FF1
:102C3000384212D0DAE90070B1F912C01CEB070774
:102C400040EBEC70B845049F77EB0000A1BF5BF848
:102C50002E0003434BF82E3001340132262A01F1B5
:102C60002C01D7D1002C00F048813278042A28D1D9
:102C7000FFF7ECFE002540E004994046FFF7C6FD53
:102C80006B68894957F833200C6814400C60DB00EE
:102C9000002C3ED13B444A685B6813404B60002BDC
:102CA00040D05A1E12EA03070CBF01340234DCE79D
:102CB0003B444A685B681A404A603278042A18D05C
:102CC00002247A4F07EB4217531C29460AA83D46B7
:102CD0000AAF337020F0D6F80FCF0FC597E80F007A
:102CE00085E80F000225FFF7B1FE34B9FFF7DCFDE0
:102CF00033E0FFF7ABFE002502246B490B6813F0AD
:102D000001032ED101200133262B10D16FF01505C0
:102D100023E0621E2242CBD13B444A685B68012417
:102D20001340BBE73278042ACBD11D46DBE75A09B2
:102D300051F8227003F01F0200FA02F23A42E2D088
:102D4000584A2C2101FB0322B2F91010327891422B
:102D500003D1574A012C1380C8D028461BB0BDE8C8
:102D6000F08F0023ECE7FFF79FFD6B6807932B695B
:102D70000593504B504F1B7806900993B846099B1A
:102D80009E420CDB069B012B40F3B780294612A81C
:102D900020F078F812A820F06DF80225DDE77B8896
:102DA000B7F800C004933F4B2C2202FB0C334FF0CA
:102DB000000EB3F910300893B946F2460124049B83
:102DC000534513DC8837BEF1000F79D0049A88236D
:102DD00003FB0683013A5A80324B2C2202FB0C3350
:102DE00093F82830FBB114BB0125B6E7BEF1000F04
:102DF00010D009F1080BBBE80F00A9F118040FC4AB
:102E00009BE80F0084E80F0000240AF1010A09F191
:102E10002009D4E7D9F81430079A9A4214BF002445
:102E20004FF0010EF1E7049B089A934218D10CF180
:102E30003B021392059A0599D217CDE9141219494C
:102E40002C2202FB0C1CDDE9140100238DE8030099
:102E5000129302930022139B0CF11C001FF08FFFB2
:102E6000002CC1D0134B1C78013CE4B2A6421C706C
:102E700008D004EB0411882208EBC10102FB068094
:102E800027F0F4F988225443002108EB040027F0CE
:102E900015FA4FF6FF7328F80430A5E7C35A00204F
:102EA0003025002074B00200E0260020A810002089
:102EB000BE090020C25A0020880E00200800002011
:102EC00001365CE7204600F0D9FAB0B1204600F0A8
:102ED000D5FA837A8BB14368E03B072B02D803789D
:102EE000072B0AD0064BD0E90412D3E9000388422D
:102EF0009341BCBF034BC3E9001200252DE700BF7F
:102F0000000000200800002030B58FB014220021FE
:102F100009A827F0D3F9214D4FF47A740022002339
:102F200009A928461DF064FA002835D1099B0490B0
:102F3000059326F004FEA0FB040304FB0131C00B43
:102F40009DF8343040EA4140C90BCDE9060113F049
:102F5000010118BF0121029106AA92E803008DE841
:102F6000030004AB0CCB0AA81FF009FF0D9B012B3B
:102F7000D4D9C3F35E044FF4004540F2E73000219A
:102F80004FF47A720023E5FB0401FDF7B9F802461D
:102F90000B4603481DF00AFE0FB030BD680B002041
:102FA0001000002030B58BB001AC84E80E00426800
:102FB000059294E8070006AD85E80B000F9A9DF88E
:102FC000383043EA4203099309480022002305A947
:102FD0001DF0B0F9002804DB064826F02FFC10B1E4
:102FE00000200BB030BD0348FFF78EFFF8E700BFAD
:102FF000680B00201000002010B50D4B1C78012C30
:1030000004D0022C0BD00024204610BD00F08AFE14
:103010000028F9D100F0DEFB4400E4B2F4E700F050
:10302000D9FB0028F0D1BDE8104000F07BBE00BF06
:10303000D709002008B50B4B1B78012B07D0022BBA
:1030400009D0002B0CBF00206FF0850008BDBDE843
:10305000084020F080BAFFF791FBBDE8084001303E
:1030600000F040BDE826002008B50B4B1B78012B73
:1030700007D0022B09D0002B0CBF00206FF0850079
:1030800008BDBDE8084020F06EBAFFF77BFBBDE845
:103090000840013000F04CBDE826002002490348FA
:1030A000012201F0D9BE00BFD709002068E3020069
:1030B000F7B50C4615461B49002207461E4620F070
:1030C00080FE024648B1012C29D1174922463046DC
:1030D000A84700EAE07003B0F0BD1449384620F07C
:1030E00070FE0028F7D0012C19D122460DF10701FE
:1030F0003046A8470028EEDB9DF807300A4D0C4803
:10310000012B0CBF022301232B7020F053FE00285B
:10311000E1D122462946074801F09EFEDBE76FF029
:103120001500D8E772E30200D709002087E3020008
:103130007DE3020068E3020013B50949094826F05F
:1031400071FBFFF759FF6C46014620461FF0EAFF6E
:1031500094E80300044B83E80300002002B010BD94
:103160009D30000028110020E826002082B00DF1DB
:10317000080C0CE9030019469DF80030012B10469D
:1031800006D0022B06D053B9064A02B01EF0DABBB5
:10319000054AFAE7019B054A02B01EF0D3BB044A78
:1031A000F3E700BF91E3020096E302009AE3020016
:1031B000A1E30200034A034692E8030083E8030008
:1031C00018467047E826002030B589B0FFF714FF95
:1031D00001AD0F4C014628461FF0A4FF94E80C00F7
:1031E00095E803001FF0ACFF80B91FF0E0FF95E801
:1031F00003000A2305AA84E80300FFF7B7FF94E859
:10320000030003AB83E8030000F004F809B030BD0D
:10321000E82600207FB56B4683E8030093E80300AF
:10322000002206AB03E90300039202A8034A0292BC
:103230001FF020FE07B05DF804FB00BF00B70200DE
:1032400030B585B078BB11B9002005B030BD184845
:10325000184D01682C6841F00103036032B344F05B
:103260000100994228601BD04FF48073ADF8003004
:103270008DF8022026F063FC4FF47A72A0FB020363
:1032800002FB0131C00B40EA4140C90BCDE902010C
:1032900004AB13E90F0005B0BDE8304000F0BCB846
:1032A0008442E1D1D0E76FF01500CEE79942F8E70C
:1032B000C8270020CC270020014B19681FF0D7BF7A
:1032C000C8270020352913B50C4602D9002002B0CA
:1032D00010BD0028FAD101A8FEF712FF0028F5DB87
:1032E0008442F3DA019B53F82430352BEED80248A0
:1032F0000C2202FB0300EAE70CB7020073B50F4B88
:1033000006460C4615461AB10D4A126843F82120AC
:1033100053F8241000201FF0AAFF58B1DDE906235E
:103320000021CDE9002330462B4622461FF0B3FF93
:10333000002801DD6FF0850002B070BDF02600208E
:10334000C82700202DE9F04F0C252DED028B314FC1
:1033500045438DB000EB4006044678599DED188B2F
:103360008946904607EB86061FF0C5FC00284FD023
:103370002046FEF7E5FF04F1360A0790002478594D
:10338000CDE9084A8DED0A8B1FF0B5FC00283FD02F
:103390008268D2F810B0BBF1000F39D0CDE90389B3
:1033A000079B02930DF1280999E803008DE80300BB
:1033B0000DF1200898E80C003046D847A04227DBE2
:1033C0002046FFF779FF80F0010B5FFA8BFB7859FD
:1033D000CDE9084A8DED0A8B1FF08DFC30B96FF0F6
:1033E00015000DB0BDEC028BBDE8F08F83685C6901
:1033F00014B96FF08500F4E7CDF808B099E8030040
:103400008DE80300304698E80C00A0470028E8DB70
:103410000020E6E76803002010B58AB06C4684E817
:103420000F0000230593064B049394E80F000AACA9
:1034300004E90F0004A81FF01DFD0AB010BD00BF75
:1034400094B9020084B030B589B00CAC84E80F00A8
:10345000002301930CAD084B00930FCD02AC0FC4B9
:1034600095E8030084E8030068461FF003FD09B0F7
:10347000BDE8304004B070479CB902000268034BBD
:103480009A420CBF08300020704700BF9CB9020070
:1034900007B56B4683E8030093E803001FF06DFE59
:1034A000024B185C03B05DF804FB00BFC45A002057
:1034B00013B56B4683E80600044693E803001FF04B
:1034C0005CFE044B1C54044802B0BDE810401DF0E3
:1034D000FFBA00BFC45A0020A40300207FB56B468A
:1034E00083E8030093E80300002206AB03E903002E
:1034F000039202A8034A02921FF0BCFC07B05DF8D9
:1035000004FB00BFA4B90200074B1A78074B82B036
:10351000162102FB013301938DF8002002AB13E961
:10352000030002B0FFF7DABFC85A0020C95A0020D2
:1035300002490348012201F08FBC00BFC85A002095
:1035400035E4020008B5002003F07EF9002802DA15
:1035500010F1780F07D1044820F030FC03480449EB
:1035600026F060F9002008BD00040020581100205A
:103570003135000070B503788AB004460E4607ADB9
:10358000032B20D8DFE803F002191B1D1149284640
:10359000FCF7DAFD059563780493A3780393E37849
:1035A00002932379019363790093A3790A4A1E2138
:1035B00030461EF0C7F90AB070BD0849E7E7084970
:1035C000E5E70849E3E7084A0A2128461EF0BAF968
:1035D000E0E700BF48E4020071E402004FE40200AB
:1035E00056E4020060E402006AE4020010B590B004
:1035F000044621F031FE6946FFF7BCFF08A92046CA
:1036000004F0E8FF9DF82130012B14D10B481DF088
:103610005FFA204621F020FE094B19780F2216236D
:1036200013FB012307490722194426F0D2FC10B9E5
:1036300005481DF04DFA10B010BD00BF1C0400205D
:10364000C85A0020C95A00202C0400202DE9F0415E
:103650008AB00D4616461F496A4604461F4620F0AA
:10366000B0FB08B30098F8B10A2201A91EF0BEF918
:10367000019B1B785BBB162D29D1C4B2012C26D827
:10368000DFF85C806C432A4608EB04013846B047FB
:10369000002806DD04F10F0002A94044FFF76AFF8D
:1036A00000200AB0BDE8F0810B496A46204620F0B0
:1036B00088FB0028F4D0009B002BF1D1012D06D10E
:1036C00006492A463846B04700EAE070E9E76FF05D
:1036D0001500E6E794E4020039E40200C85A00202D
:1036E000C95A0020012808B50DD80F22162313FB54
:1036F0000023064806490722184426F06AFCB0FA5F
:1037000080F0400908BD0020FCE700BFC95A002036
:1037100050E60200014B1878FFF7E4BFC85A0020BA
:103720002DE9F0410C468EB005464FF0160806A96B
:10373000204615FB08F7FFF71DFF0D4E216807F126
:103740000F029319B150A2889A80A2799A710949FF
:103750002A4601A81EF022F94246F11901A801F0FB
:103760007BFB05481DF0B4F90EB0BDE8F08100BF49
:10377000C95A00209DE402002C04002010B5012845
:1037800088B002D9002008B010BD0F23162414FB06
:1037900000340E4B0E491C440722204626F019FC2B
:1037A0000028EFD02146002004F0C0FE0446002887
:1037B000E8D0694604F00EFF204604F08BFB9DF82C
:1037C0001C00831E58425841DDE700BFC95A002043
:1037D00050E60200014B1878FFF7D0BFC85A00200E
:1037E000F0B58DB0FFF796FF98B9FFF7F3FF80F0C3
:1037F00001035B00DBB2214D2A7803EB0213112B8E
:1038000009DC022B2DD0102B23D0002420460DB034
:10381000F0BD0223EFE7202B1BD0122BF5D103F0D4
:10382000C9FE00232B7004460028EFD1144F0FCFA0
:1038300002AE0FC63B68134933600322009423464F
:1038400002A803F085FE04460028DFD102232B7076
:10385000DBE703F0AFFE00232B7004460028D4D032
:10386000D4E7074E0FCE07AC0FC4336823600023A4
:1038700004490093032207A8E3E700BFF55A00209C
:1038800060AB02003C04002030B591B0054621F049
:10389000E3FC69460446FFF76DFE08A9284604F0DC
:1038A00099FE9DF82130012B05D1FFF733FF21460A
:1038B00018B902F07FFD11B030BD034B1878FFF747
:1038C0002FFFFFF78DFFF6E7C85A002030B591B003
:1038D0000D4608A9044604F07DFE9DF82130012B19
:1038E0000BD1204621F0B8FC6946FFF743FE0F4B91
:1038F00000221A701DB1FFF773FF11B030BDFFF742
:103900006FFF204621F0A8FC094B19780F221623DF
:1039100013FB012307490722194426F05AFB00280C
:10392000EBD105481DF0D4F8E7E700BFF55A0020B9
:10393000C85A0020C95A00202C04002008B50648A7
:1039400004F0B4FD054804F049FF054804F060FFA9
:10395000FFF746FF002008BDE0030020C40300205D
:10396000B4030020014B1878704700BFC85A0020EC
:1039700010B508490722044626F02BFB48B106493A
:103980000722204626F025FB002814BF6FF0120006
:10399000012010BDD85A0020EE5A002010B50A4B65
:1039A0000A491A7816240F2314FB0234084B1C44CE
:1039B0000722204626F00DFB28B121460020BDE855
:1039C000104004F0B3BD10BDC85A002050E60200FC
:1039D000C95A00201FB561240294044C0194BDF81B
:1039E0001840009422F0DEFD04B010BDC9E40200CE
:1039F00007B5064B00930649064805234FF440726D
:103A00001DF06CF8002003B05DF804FBA8B90200BB
:103A1000D85B002088110020F0B5164E164F89B0F3
:103A200000220023694630461CF0E2FC054608B13E
:103A300009B0F0BDFFF7B2FF04460028F8D0182205
:103A4000294602A826F03AFC08230DEB0301204684
:103A50000397CDF810D0ADF8143006F009FE013010
:103A600003D10221204621F0B8FB204604F032FAAF
:103A7000D6E700BFC80B002014BA02002DE9F041C0
:103A8000164FDFF85C808AB001AE00220023314679
:103A900038461CF0ADFC054610B10AB0BDE8F08117
:103AA000FFF77CFF04460028F7D01822294604A817
:103AB00026F004FC0C2304A92046CDE90586ADF8C8
:103AC0001C3006F0D5FD013003D10221204621F043
:103AD00084FB204604F0FEF9D7E700BF980B0020D6
:103AE00064BA020037B5054640F6CD4201460023D0
:103AF0000C481CF01FFC044678B110F10B0F09D1E3
:103B000000220023694607481CF072FC2846FFF794
:103B1000E9FF0446204603B030BD0349034825F0C1
:103B200050FEF7E7C80B0020640400208811002035
:103B300030B5054685B040F6CD42014600230D481C
:103B40001CF0F8FB044678B110F10B0F09D10022EC
:103B5000002301A907481CF04BFC2846FFF7E8FFAB
:103B60000446204605B030BD0349044825F029FE2F
:103B7000F7E700BF980B00205404002088110020B4
:103B80001FB50023CDE90233044B8DF80C0001A8CA
:103B900001931FF06FF905B05DF804FB1CBB020038
:103BA00008B500F031F9BDE80840014925F009BE2B
:103BB000EC04002007B5084825F062FB48B14FF43B
:103BC000F0120023CDE900230448002200231DF059
:103BD00031FE03B05DF804FBC0A70200680A0020B4
:103BE00008B5FEF7EBFB10B96FF0850008BDFEF7D6
:103BF000F1F938B10138C0B20128F5D8034825F0F1
:103C0000E5FF01E0FFF7D6FF0020EFE7680A00209C
:103C100037B5104CA5683021EB6820469847B8B9F5
:103C200030212B696A462046984788B90A4C00988B
:103C30002378834204D0C0B22070FFF7A1FF38B9C7
:103C400001F0DCF82378984202D0184601F0DCF845
:103C500003B030BDC0A70200F75A002008B50548E0
:103C600025F00EFB18B1FFF7A5FF002008BD6FF08F
:103C70001200FBE7C0A702001FB50023CDE9023305
:103C8000044B8DF80C0001A801931FF0F3F805B068
:103C90005DF804FB24BB020008B5044800F0C8FD31
:103CA000002818BF6FF0150008BD00BFE53C0000FC
:103CB000014B1878704700BFE9090020084B1B78BA
:103CC0000B2B4FF001000AD8984010F4CD6F05D1AE
:103CD00010F4016F0CBF01200020704702207047D4
:103CE000E90900200A2808B5024613D00A4B0B49FF
:103CF0001870FFF7E3FF02280AD10B78032A08BFE8
:103D000043F001030B70BDE8084005481CF0E0BE1D
:103D10000023F7E708BD00BFE9090020F85A00209A
:103D2000FC04002008B5FFF7C9FF022806BF034BBB
:103D30001878002000F0010008BD00BFF85A0020EC
:103D400010B50948094C1CF04BF9206048B1084BEC
:103D50000849612201F0E8FE206820F05BF90020AC
:103D600010BD6FF01500FBE784E50200D0270020AE
:103D700028BB02008AE5020038B504460D46FFF76D
:103D800097FF0B280BD8DFE800F01E1E0A0A1E065C
:103D90000A0A0A0A0A1EBDE8384000F027BD4FF49F
:103DA0007672002309481CF0B9FC094821460068D6
:103DB00000232A4620F038F9044610B103481CF0CD
:103DC00073FC204638BD6FF01204FAE7100C002097
:103DD000D027002001481CF067BC00BF100C002059
:103DE00007B5064B0093064906480A234FF4407274
:103DF0001CF074FE002003B05DF804FB40BB020021
:103E0000D85E002060120020004870476012002039
:103E1000014B1B68184700BF0C05002030B585B06A
:103E200004460D4610220021684626F047FA022378
:103E30008DF802302A46044B0193214668461DF056
:103E4000D7FE05B030BD00BF113E000080B505466D
:103E50000E46174698461DF00FFA034626F0FEFA66
:103E6000DFF81890044649F800304246304639469B
:103E7000A84754F8090001F0C7FA00BF0800000085
:103E800008B50446EFF31183202383F31288BFF3B0
:103E90006F8F19F035FA204601F0A4FA02481FF09E
:103EA0003EFD1FF0E2FFFCE703E602002DE9F047CC
:103EB000058B04462807904611D4022905F0070512
:103EC00040F0CC8020461FF0D8FD78B10138218B1E
:103ED000042811D8DFE800F0C2106D859500012993
:103EE0000CBF45F0100545F02005258388F31188A7
:103EF000BFF36F8FBDE8F08701F0070AAA4500F015
:103F0000A5800027B9463E46A368002B00F0BC8080
:103F100041F00801218388F31188BFF36F8FA168F6
:103F2000002900F0BA800D68002900F0B680D1F8B1
:103F30000480334652462046C047002D76D02B6879
:103F400029461D46F0E701F007035A1F012A1BD836
:103F5000002221F00701062B276889B2C4E900225C
:103F600009D13B4603E0628B013262831B68002B60
:103F7000F9D141F00201218320461FF07EFD002887
:103F80007AD041F0200176E0042B0AD121F007011C
:103F900089B2218320461FF070FD10B141F020014D
:103FA0002183218B01F0070AAA454FD00027B9468B
:103FB000AAE7236921F0070141F00601062DD3F895
:103FC000009021832DD1B9F1000F3FD041F00801BD
:103FD000218388F31188BFF36F8F3A492046C84781
:103FE00029E021F00701236941F0040189B2042D81
:103FF000D3F804902183E6D000273E464FF0040A10
:1040000082E721F00701236941F0050189B2052DFE
:10401000D3F808902183D6D000273E464FF0050AFA
:1040200072E700273E464FF0060A6DE72B4687E70A
:10403000B9F1000FD1D1EFF31188202383F3128857
:10404000BFF36F8F238B23F008032383258BEA06AE
:104050002ED525F01003238305F007056669218B13
:10406000002EBFF670AF00232768C4E9003321F0AB
:10407000070141F001012183218B01F0070AAA45C4
:104080004FF000097FF440AF002F9CD041F00801B1
:10409000218388F31188BFF36F8F002FC8D03D684C
:1040A00039463346524620461FF013FD2F46F4E7AB
:1040B000AB067FF51BAF25F02003238305F0070532
:1040C00000E700BFFF3A0200F0B40C4B0C4E5F6AF1
:1040D0000C4BB34203D36FF08500F0BC70475D68B2
:1040E000BD4209D31C693CB195F802C00579AC45C5
:1040F00002D12346F0BC18472433EAE7D427002036
:104100004C0E0020280E00202DE9F047134CDFF85C
:104110005080DFF8509005460E461746444503D3BD
:104120006FF08500BDE8F0876268D9F824309A42C4
:1041300012D3A36983B190782979884205D13A4690
:1041400031462846BDE8F04718475279012A03D185
:104150003A463146284698472434DFE7280E0020A7
:104160004C0E0020D42700202DE9F0410B4CDFF845
:10417000308005460E461746444502D36FF0850051
:1041800009E063690BB92434F6E73A46314628461C
:1041900098470028F7D1BDE8F08100BF280E002025
:1041A0004C0E002010B5044623F04AFA10F1780FA7
:1041B00000D050B9054A20461FF086FDD2F8C43021
:1041C00023EA0003C2F8C430002010BDD427002029
:1041D000024B00221A605A60704700BF8F280020EF
:1041E00070B50B4B0B4CA34201D3002070BD196A74
:1041F0001E7F00220439D5B2AE4201D82433F2E743
:10420000013211F832508542F5D10120EEE700BFAE
:10421000280E00204C0E002008B509480378C3F38F
:1042200041130A3350F823303BB100F1080200F18A
:1042300010019847C043C00F08BD1846FCE700BFF7
:10424000D427002004282DE9F14FDFF8A090044680
:104250000F4616D001282DD1DFF88C8098F8B930A0
:1042600043B300F06DFD1F4D4D4520D2D5F820B071
:104270004FF0000A2B7F5FFA8AF6B34204D8243548
:10428000F2E7FFF7A5FFE7E70BEBC6060AF1010A25
:10429000307923F0D5F9024630791FF015FDD8F8B2
:1042A000C430002A23EA0003C8F8C430E2DA00234D
:1042B00088F8B9300B4D4D4508D30B4B1B6A6BB1D9
:1042C0003946204601B0BDE8F04F1847EB681BB1F6
:1042D0003A462146284698472435ECE701B0BDE828
:1042E000F08F00BF280E0020D42700204C0E0020A5
:1042F00073B5C4B263060D468DF8074007D020465B
:10430000FFF76EFF78B10D4B93F8BA0058B10B4E22
:10431000204655B116F0A4FDF3691BB10DF107015C
:1043200008209847012002B070BD16F0C1FDF36966
:10433000002BF7D00DF107010920F2E7D427002068
:1043400073B586788DF80060037942791C4C43EA96
:104350000223ADF80230C378304603F003038DF832
:1043600004301FF0B1FCD4F8C430184205460BD01D
:10437000304600F0C7FC3046FFF714FF25F0B0FAD6
:1043800010B996201CF036FF684616F045FD10F176
:10439000780F03D010B1002002B070BD9DF800006E
:1043A00016F0C2FD10F1780F01D00028F3D1D4F837
:1043B000C43001202B4384F8B900C4F8C430EBE7C3
:1043C000D42700202DE9F047A34EB36904460F46D9
:1043D0001546FBB9237803F01F03012B00F09D80E5
:1043E000022B00F0048133BB94F900002A68617845
:1043F000002834DA062912D008292BD0D9B9012394
:104400001370517096F8C3305B0043F001031370D2
:1044100002232AE198470028DCD100200DE06288C1
:10442000100A011F0129844605D9072803D8716A9B
:10443000D2B20C781CB96FF01500BDE8F0874E7849
:10444000664503D19A4200F00B8101332144F0E725
:104450000B780AE196F8BA301370012305E10139AF
:104460000829E8D801A353F821F000BF0545000052
:104470003744000013450000374400009144000019
:104480003744000037440000374400009D440000DA
:10449000A07816F0AFFC0028BFD0CCE76388756A1F
:1044A00063BBFFF795FE638886F8BA30F369002B8B
:1044B000B3D06A4903209847AFE76B78042B10D03C
:1044C000052B11D0022B04D16F796388BB4208BF42
:1044D00001202B781D442B78002BEED10028AAD088
:1044E000DFE795F80380F4E76388BB42F1D1B8F1C8
:1044F000000FEED12846FFF723FFEAE7FF27002051
:10450000B846E8E76388012B95D1002386F8C330CD
:1045100083E76388012B8ED1F8E796F8BA30D5F897
:1045200000C0002B87D0756AA38894F804E02A465F
:10453000107800283FF47FAF5178022904D192F817
:104540000480F04500F293800244F1E78CF80020EB
:104550008CF80120396060E7154494E00B2A7FF461
:104560006AAF00274FF0FF08C146BA4606E06B78F5
:10457000042B0FD0052B21D02B781D442B78002B3A
:10458000F5D1F36913B1514607209847002F7FF406
:1045900044AF50E795F80280A38895F803909845BA
:1045A000EAD163889945E7D1B8F1070F1CD806EB2B
:1045B0000803AA4683F8BB900127DDE7A38843459B
:1045C000DAD1A3784B450AD0AF78384600F09AFB91
:1045D0003846FFF7E7FDB0FA80F77F09CCE72846B9
:1045E000FFF7AEFE0746C7E7AA460027C4E794F9DF
:1045F00000206378002A18DA002B7FF41CAF24799E
:104600002D6863060AD02046FFF7EAFD00283FF434
:1046100012AF96F8BA30002B3FF40DAF2946204672
:1046200016F066FC00236B70F2E6012B08D0032B1A
:104630007FF401AF6388002B7FF4FDAE012103E01E
:10464000618800297FF4F7AEA088FFF751FE0028AB
:104650007FF4E3AEEFE600BFD42700208E280020D1
:10466000022829607FF4F4AE4B883B60D5E694F9CC
:10467000000062780028BFF671AF002A3FF466AFF1
:104680000A2A7FF4D8AE2A78002A3FF4D4AE69789B
:1046900004297FF461AFA9788B427FF45DAF072BCB
:1046A00096BF9B19002393F8BB308CF80030D4E6FA
:1046B00013B5164C237DF3B9E268A168019201ABF2
:1046C00080201FF00FFB019AA3681344A360E368E6
:1046D0009B1AE3606BB962B12369E2889A4208DDF4
:1046E00094F8C82093FBF2F102FB11330BB90123BC
:1046F000237502B010BD00231A4619468020237589
:1047000002B0BDE8104016F039BC00BFD42700202D
:1047100030B585B0002302460D460193002858D1DC
:10472000002935D108220B460DEB020122F0A1FF32
:10473000002804DA802016F093FB05B030BD2A4C27
:10474000029A2260039A626004F13802A2609DF925
:104750000820BDF80E302575002AC4E903550ADB90
:10476000802B04D9802016F07BFB0020E3E713B1F7
:10477000C4E90333E1E7FFF74FFD0028DAD0E28810
:1047800023699A42D4BFE260E360FFF791FFD4E768
:10479000154CD4E90215002D01AB04DC22F069FFB1
:1047A0000028CADAC6E72A4622F063FF0028D9DBD0
:1047B000019AA3681344A360E3689B1AE360002B8B
:1047C000BBD104F13803A360FFF726FD0028DCD13C
:1047D000B0E78028B1D1044BDA68002AD5D11B7D1F
:1047E000002BD2D1A9E700BFD4270020044B93F8B7
:1047F000C3300BB122F04CBF6FF00C00704700BF0C
:10480000D4270020054B064A9A62064ADA62064A15
:104810001A63064A58629A6100207047D427002024
:10482000C5430000C9400000694100000941000083
:104830002DE9F3410446474D47484FF0FF334FF011
:10484000FF321BF037FE95F8B830002B7BD16B6A36
:1048500083B142482C62E8616E6A16F0A9FC16F03A
:1048600097FA041E10DA3C481BF09CFE204602B06A
:10487000BDE8F08100F0BEF8FFF7C4FF6B6A002BC3
:10488000E7D14FF0FF34EEE700F07CFA041EEADBDC
:104890007378012B5AD1F379002B57D00026684644
:1048A00085F8C830ADF802308DF804608DF80060EE
:1048B00016F0B2FA041ED6DB802768468DF8007029
:1048C00016F0AAFA041ECEDB2549304616F05CFC31
:1048D000041EC8DB2249384616F056FC041EC2DB13
:1048E000204CDFF8848044451AD3002016F01CFBCE
:1048F000041EB8DBD5F8C430802043F00103C5F8AE
:10490000C43016F011FB041EADDBD5F8C43043F4FF
:104910008033C5F8C430012385F8B8300024A2E7FD
:10492000276A0026227FF3B29A4201D82434DAE7BC
:1049300007EBC30257F83310107916F025FC013647
:104940000028EFD09DE76FF077048CE76FF0150437
:1049500089E700BFD4270020240B00204542000037
:1049600011470000280E00204C0E002030B51F4BD0
:104970008BB005AA03F1100518685968144603C4E2
:104980000833AB422246F7D11B7823701022002156
:1049900001A825F093FC12220021154825F08EFC79
:1049A000102101A822F091FF00281BDD0828B8BFC4
:1049B0000820093801AB0E491A18002012F8013FEF
:1049C0000AAC04EB131403F00F0328336B440130DB
:1049D00014F8144C13F8143C0C7008284B7001F1B7
:1049E0000201EBD102480BB030BD00BF2CE6020043
:1049F000FA5A00202DE9F04F724B93F800B087B0BF
:104A0000BBF1000F03D0704807B0BDE8F08F6E4CCB
:104A100000264FF0011AB0463546B14623783BB91F
:104A20006A4B02349C42F3D1664A01231370EAE7D1
:104A30006378052B1BD8DFE803F08E03C38E1D3986
:104A4000402304A88DF810B0ADF812308DF814B0E2
:104A500022F0E1FD40B1082304A8ADF8123022F0A5
:104A6000DAFD08B1ADF812B0BDF81230E371237869
:104A70001C44D3E7E378002BF9D1A3786BB108F19C
:104A800001085FFA88F8F2E76B689C4207D024358A
:104A90004F4B9D42F8D30020B6E74E4DF8E7AB6888
:104AA000002BECD0414620469847E8E7002DF2D095
:104AB00000222B7F9A42EED2296AA07801EBC20134
:104AC0000B79984201D00132F3E70127E07800F03A
:104AD00003008DF81400207994F805C040EA0C20FA
:104AE000ADF8120094F902000028FBB228DA07F1B1
:104AF00010004FF0010C0CFA00F010EA0A0F26D15A
:104B000043F080008DF8100004A8CDE90213019253
:104B100022F081FDDDE90121039BC0B99DF8102041
:104B2000A27012F0800F18BF10330A7118BFDBB2E9
:104B30004FF0010214BF9A40BA404AEA020A96E7CF
:104B40000120B84010EA0A0F01D11846DAE7013710
:104B5000102FBBD1B7E7032E1AD1FFF707FF074687
:104B600050B1FBF7F9FA024630B11028A8BF102265
:104B70003946A01C25F07AFB23786FF00201E21879
:104B8000091B04EB5303D14213D50136F6B26EE78D
:104B9000002EF1D1B9F1000F3FF47DAFA4EB090372
:104BA00089F80230C3F3072389F8033089F80480B9
:104BB000EBE702F801BC13F8010902F8020DE2E785
:104BC000A14654E7F95A0020A40D0020280E002029
:104BD0004C0E0020280E002010B5094B00211A466B
:104BE0001C78844205D15C681CB1482303FB01207A
:104BF00010BD0131042903F14803F1D10020F7E78A
:104C0000A02800202DE9F34150F8303C10F8346C16
:104C1000103304460AD1036950F8282C980736D57A
:104C2000D2B9590715D5002344F8303C54F8303C2C
:104C300010330BD054E9097554F81C8C24F050FE45
:104C400000284FD02E48214624F0BBFD02B0BDE81D
:104C5000F08143F00403236154F82C1C01AB30466F
:104C60001FF040F810B16FF01503DDE7019A54F81A
:104C70002C3C134444F82C3C54F8283C9B1A44F830
:104C8000283C54F8243C134444F8243CCEE754F820
:104C90002C1C01AB304616F0EDF90028E3D1019D44
:104CA00054F82C3C2B4444F82C3C54F8283C5B1B17
:104CB00044F8283C54F8243C2B4444F8243C002D70
:104CC000B1D0304616F07AFAB5FBF0F303FB10557D
:104CD000002DA8D154F8283C002BA4D0304616F063
:104CE00011FAA3E744F8200CA4F118001BF0DCFC37
:104CF000002DABD0424639463046A847A6E700BF54
:104D00003022002010B5EFF31184202383F31288A2
:104D1000BFF36F8FFFF760FF50B14368103307D1C7
:104D20006FF08B03436000F13401044824F049FD27
:104D300084F31188BFF36F8F10BD00BF30220020B5
:104D4000F8B50E4C04252027EFF3118687F312885F
:104D5000BFF36F8F6368103307D16FF08B03084880
:104D6000636004F1340124F02CFD86F31188BFF355
:104D70006F8F013D04F14804E6D1F8BDA028002062
:104D80003022002070B50A4C0A4E002531462046DC
:104D900024F0ECFC0122A4F118001146013524F0A6
:104DA00062FC042D04F14804F0D1002070BD00BF66
:104DB000D4280020054C00001FB507240294044CA1
:104DC0000194BDF81840009421F0ECFB04B010BD34
:104DD000EA09002010B5084C86B024788DF81740F9
:104DE000012402940DF117040194BDF820400094B1
:104DF00021F0D8FB06B010BDF1090020014B187856
:104E0000704700BFF109002000B589B064288DF813
:104E1000070019D80E4B18221870002102A825F09F
:104E20004DFA0C4B03930DF10703049302A90123E0
:104E30000020ADF8143005F01BFC10F1800F08BF06
:104E4000002009B05DF804FB6FF01500F9E700BF22
:104E5000F1090020E8BB02002DE9F0410F4B1C686E
:104E600005460E461746ACB14FF0FF324FF0FF3308
:104E70000B481BF01FFB63683246D3F808802946B5
:104E80003B462046C047044605481BF08BFB2046A6
:104E9000BDE8F0816FF00104F9E700BFC0290020F0
:104EA000100B002030B585B000230546CDE9023354
:104EB00001904FF0FF330C484FF0FF321BF0FAFA2D
:104EC0000A4B1C684CB9284600F084F80446064892
:104ED0001BF068FB204605B030BD636820461B68A8
:104EE00001A998472468EDE7100B0020C429002091
:104EF0001FB5CDE9010103924FF0FF330A484FF08F
:104F0000FF321BF0D7FA094B1C682CB906481BF07E
:104F100049FB204604B010BD636820461B6801A908
:104F200098472468F1E700BF100B0020C429002037
:104F3000024B0022C3E90022704700BFC4290020B1
:104F4000024B0022C3E90022FFF7F2BFCC29002068
:104F5000F8B51C4C1C4E05460F46B44212D31B4EEE
:104F60001B484FF0FF324FF0FF331BF0A3FA3468B9
:104F70007CB1286854F8181C183CFBF7DBF8D0B15A
:104F8000A469F5E721682868FBF7D4F8B0B11834B4
:104F9000E3E700226F60AA61726805F118033AB96D
:104FA000C6E9003300240A481BF0FCFA2046F8BD8D
:104FB00013607360F6E76FF01004F4E76FF010040D
:104FC000F4E700BF98AA020058AB0200CC290020E9
:104FD000100B00202DE9F047DFF8B090DFF8B0A00B
:104FE00080464FF000470026274C3D464C450DD3E8
:104FF000DAF80040002C42D0183CB8F1000F25D15F
:1050000022695ABBA469F5E72F46EDE7B8F1000F16
:1050100003D122694AB91834E8E7206800224146E2
:105020001EF0CFFE0028F4D1F5E76368BB4205DD32
:10503000AF4209D09D42A8BF1D46ECE7EBD1904797
:10504000002E08BF0646E6E71D46E4E7206800227A
:1050500041461EF0B6FE0028D2D1D3E76368BB42BA
:1050600005DDBD4209D09D42A8BF1D46CAE7C9D192
:105070009047002E08BF0646C4E71D46C2E7AF4270
:10508000C2D13046BDE8F08798AA020058AB0200B2
:10509000CC29002038B50C4D0C484FF0FF334FF0B1
:1050A000FF321BF007FA2B783BB9FFF749FF1EF0E0
:1050B000BEFE044610B901232B70002403481BF0E8
:1050C00071FA204638BD00BF0C5B0020100B002099
:1050D00030BFFFF7FDBF00BF2DE9F0410B4EDFF8F9
:1050E000348006EB0807CC1B0546324608492046AB
:1050F00025F0BCF8A01942460021083C25F0DEF856
:10510000AC6607F10800BDE8F08100BF00000000B8
:1051100058AB020008000000054B9A699B689A4250
:105120001FBF044A536843F080535360704700BF69
:105130009C59002000ED00E0134B9A6A12F0007FAA
:105140009A6A14BF1E201D2012F0807F9A6A18BF31
:105150001F2012F4002F9A6A18BF212012F4802F0A
:105160009A6A18BF222012F4003F9A6A18BF2320BF
:1051700012F4803F9A6A6FEA02426FEA12429A6220
:1051800018BF2420704700BF00ED00E010B5194B98
:105190000246986A9C6A10F4805F14BF172016209C
:1051A00014F4006F9C6A18BF1820A40509D5986BE9
:1051B000986A000404D51AB19A6A22F400429A62ED
:1051C00019200C4B9A6A12F4806F9A6A18BF1A2041
:1051D000D2050CD49B6A13F4005F18BF1C20054A4B
:1051E000936A43F47F43936200230B7010BD1B202E
:1051F000F5E700BF00ED00E010B51C4B0246986AD1
:105200009C6A10F0100F14BF1120102014F0080F2A
:105210009C6A18BF1220A40709D5586B986A00062B
:1052200004D51AB19A6A22F080029A6213200F4BB9
:105230009A6A12F0010F9A6A18BF142012F0200F18
:105240009A6A18BF1520D40658BF9B6A074B9A6A02
:10525000920642BF5A6A22F400525A629A6A42F097
:10526000FF029A6200230B7010BD00BF00ED00E04A
:1052700070B5444B5B689CB00646C3F30803002539
:1052800085F31188BFF36F8F02F07F40B0F17F4F3D
:1052900011D102F00C0008280DD010074CBF0E46AB
:1052A00001250022033B8DF80720032B05D8DFE8FA
:1052B00003F01E5C60592E46F3E700249DF807308A
:1052C0009BB96822314602A824F0D0FF099B002D2B
:1052D00053D0C3F3080222B96FEA53236FEA432382
:1052E000099302A920461EF0A4FD1CB070BD254BF9
:1052F000DA6A9107E1D4DA6A002ADEDBDA6A520060
:10530000DBD55A69B16942F480725A61BFF34F8F9D
:10531000BFF36F8F5A6931F8021C22F480725A6110
:10532000BFF34F8FBFF36F8F4DF60272914209D0DA
:105330009A6AD2B242B10DF107010120FFF75CFF7A
:105340000446BBE73468B9E79A6A12F47F4F05D088
:105350000DF107010120FFF719FFF1E79B6AB3F593
:10536000803FAAD3FFF7E8FEEAE70DF1070100202E
:10537000E4E70DF107010020EDE723F4FF7323F0CC
:105380000103ADE700ED00E0044B5A6942F0100262
:105390005A615A6922F008025A61704700ED00E034
:1053A000EFF30880EFF3098101B57246FFF760FF64
:1053B00001BD00BF17F0CEFF202080F31188084800
:1053C0004FF40061401880F30988EFF31480022144
:1053D000084380F31488BFF36F8F00F0CDF800000E
:1053E000887A0020BFF34F8F0549064BCA6802F444
:1053F000E0621343CB60BFF34F8F00BFFDE700BFF8
:1054000000ED00E00400FA05084B9B6883420BD1D5
:10541000EFF3058343B1064B5A6842F080525A605D
:105420005A6A22F400425A621BF02CBF9C59002099
:1054300000ED00E020498A6882F8B5E04FF03000C6
:105440001044EFF3098C80E8F01F1EF0100F03D119
:1054500002F1740080EC108A202080F31288BFF3E0
:105460006F8F164F4FF000668A698A603E60906EBB
:10547000134C206092F9B5E0D06E0023D36680F320
:1054800011881EF0100F03D00023E1EE103A03E064
:1054900002F1740090EC108AEFF3148323F00403FC
:1054A00083F31488BFF36F8F02F1300090E8F01F90
:1054B0008CF30988704700009C59002004ED00E03F
:1054C000D42900201EF0040F0CBFEFF30880EFF387
:1054D0000980816911F8021C0229FFD001B57246CA
:1054E0001EF0ADFC01BD00BF40B2002807DB044A3E
:1054F0004109012300F01F00834042F8213070472A
:1055000000E100E040B200280CDB4309064900F04E
:105510001F0020330122824041F82320BFF34F8F28
:10552000BFF36F8F704700BF00E100E0054B4209F9
:1055300000F01F0053F82220012303FA00F010406E
:10554000704700BF00E100E040B20028A8BF00F1B2
:10555000604001F10101B8BF064B4FEA4111ACBFF9
:1055600000F5614000F00F00C9B2B4BF195480F8D3
:105570000013704714ED00E0144A08B5144B22F0F4
:105580007F029A60BFF34F8FBFF36F8FD3F88820ED
:1055900022F47002C3F88820D3F8882042F4A002D5
:1055A000C3F888204FF04042C3F83422BFF34F8F36
:1055B000BFF36F8F0023E1EE103A1AF0C5FD1BF028
:1055C00099FF00F07BF81AF0FFFD00BF000000001B
:1055D00000ED00E042F8203C009B42F81C3C019B9F
:1055E00042F8183C0A49029B42F8143C4FF0807381
:1055F00042F8043C21F00101002342F8081C203A43
:10560000C3664FF47D430265C0F8B430704700BFF5
:105610004D3E0000104B9B6883421AD1EFF305808A
:10562000B8B9EFF31181202282F31288BFF36F8F94
:105630001A7B22F002021A73EFF3148323F004039F
:1056400083F31488BFF36F8F81F31188BFF36F8FDB
:1056500070476FF0150070479C59002000B50E464A
:1056600015460023E1EE103AEFF3148323F0040310
:1056700083F31488BFF36F8FBFF36F8F084B826E75
:105680009860084B1A602C4686F309880020064B68
:1056900098472046002100220023044C204700BFE9
:1056A0009C590020D42900205D3E02004D3E0000A0
:1056B000014B10221A61704700ED00E004480023FE
:1056C0002021C2180133302B82F80013F9D1704722
:1056D00000E100E008B5EFF30583064A103B02EB5A
:1056E000C30152F8330049688847BDE80840FFF716
:1056F00013BD00BF38A8020008B50649064821F0CE
:105700000701C1F1005202F580221EF0C9F8002005
:1057100008BD00BF9BA40020D829002003484FF0FB
:10572000FF324FF0FF331AF0C5BE00BF5405002012
:1057300001481AF037BF00BF5405002038B50546B0
:10574000FFF7ECFF08482A4608211EF041F80446FE
:1057500028B925B124F082FE044B0C221A50FFF721
:10576000E7FF204638BD00BFD82900200C0000000C
:1057700010B50446FFF7D2FF214603481DF0F0FFA5
:10578000BDE81040FFF7D4BFD829002070B5A0FBBA
:1057900001543CB92846FFF7D1FF064640B9002620
:1057A000304670BD24F05AFE044B0C221A50F6E726
:1057B0002A46214624F082FDF2E700BF0C000000DB
:1057C00070B54169867A0B4D044659B1437ADB07BF
:1057D00006D42C2303FB06535B6A1B689B6898471F
:1057E000002363612C20214606FB0050BDE8704079
:1057F00023F02BBF700C0020024B2C2202FB003048
:10580000704700BF700C0020827A064B2C2101FBF0
:1058100002339A6A1B7F1B33801A23F00303B0FB09
:10582000F3F07047700C002038B5074B827A2C24B7
:1058300004FB02335B6AD3E901240C601568FFF7AF
:10584000E3FF04FB005038BD700C00202DE9F0434D
:1058500085B005466846039190461C4624F071F9D0
:10586000DDE90067EFF31189202383F31288BFF38A
:105870006F8F6B8B002B41D02A8B9A4225D9002247
:10588000002328461AF0DEFE0446F0B189F31188A1
:10589000BFF36F8F039B002B41D032463B466846D7
:1058A00024F073F9A27A264B2C2101FB0233204607
:1058B0005B6A1B6803A91D68DDE90023A8476061D6
:1058C00070BB2046FFF77CFF24E0698B4B1E6B8387
:1058D00089F31188BFF36F8F2B7F2A8BAC6A1B3340
:1058E00023F00303521A02FB0344154B154AEB1A2B
:1058F0009B105343A3722B7FE372CBE789F311888C
:10590000BFF36F8F2346424628461AF09BFE04469B
:105910000028BFD10024204605B0BDE8F0836361B4
:10592000012300252381039B6382E27A6560294677
:1059300004F1180024F0C2FC63692582E360EAE701
:10594000700C0020A38B2EBA70B50C4C2C2500B91E
:1059500070BD037A4668013BDBB20372002BF7D1BE
:10596000C3604360837A05FB03431B6A13B1984706
:105970003046ECE7FFF724FFFAE700BF700C002089
:10598000024B0122C3F840250020704700E001408F
:1059900020B1034B800143F001031847704700BF5B
:1059A000D0AB020008B5044823F06AFC00280CBF05
:1059B0006FF01200002008BD58A6020010B5034683
:1059C0000548826814688AB21946A0470028B4BF07
:1059D0006FF00400002010BD58A6020010B50C4660
:1059E000014608481EF0B0F950B1022C08D150F819
:1059F000083C2BB11B691BB1BDE81040006818477B
:105A000010BD00BFFC290020F8B590F90030002B34
:105A100004460D46174602DB6FF01500F8BD0388FB
:105A200023F0E0039BB240F201629342F4D1468836
:105A300001791248360A1EF079F90028ECD0212E9F
:105A400004D0222E0FD06FF08500E7E70368E188CD
:105A50005B685B6813F8092F914294BF29602A6044
:105A60003B600020DAE7E38850F80C2C9A4294BFA0
:105A70002A602B6050F8103CF2E700BFFC290020A0
:105A80002DE9F04104460E460179144817461EF0F0
:105A90004DF90546D0B194F9002000686378002ADA
:105AA0000DDA012B16D155F8083C9BB11D688DB15C
:105AB0003B4632462146AC46BDE8F0416047092BE3
:105AC00008D155F8083C2BB15D68F0E76FF0120083
:105AD000BDE8F0816FF08500FAE700BFFC290020E7
