:10C00000D0A10020C51A0100BD0E0300B11A010025
:10C01000B11A0100B11A0100B11A010000000000BC
:10C02000000000000000000000000000D51B01001F
:10C03000B11A010000000000451B0100B11A010007
:10C04000E51D010001420200E51D0100E51D0100A2
:10C05000E51D0100E51D0100E51D0100E51D0100D4
:10C06000E51D0100E51D0100E51D0100E51D0100C4
:10C07000E51D0100E51D0100E51D0100E51D0100B4
:10C08000E51D0100E51D0100E51D0100E51D0100A4
:10C09000E51D0100E51D0100E51D0100E51D010094
:10C0A000E51D0100E51D0100E51D0100E51D010084
:10C0B000E51D0100E51D0100E51D0100E51D010074
:10C0C000E51D0100E51D0100E51D0100E51D010064
:10C0D000E51D0100E51D0100E51D0100E51D010054
:10C0E000E51D0100E51D0100E51D0100E51D010044
:10C0F000E51D0100E51D0100E51D0100E51D010034
:10C1000053B94AB9002908BF00281CBF4FF0FF31BE
:10C110004FF0FF3000F00CB8ADF1080C6DE904CE23
:10C1200000F022F8DDF804E0DDE9022304B07047F6
:10C13000704700BF10F8012B11F8013B012A28BFFE
:10C140009A42F7D0D01A7047034611F8012B03F832
:10C15000012B002AF9D17047034613F8012B002A5E
:10C16000FBD1181A013870472DE9F04786468C46F6
:10C170000846089E154674461946002B40F0C280BA
:10C180008542B2FA82F245D94AB1C2F1200300FADF
:10C1900002FC2EFA03F3954043EA0C0C94404FEA5C
:10C1A000154EA8B2BCFBFEF8230C0EFB18CC08FB06
:10C1B00000F943EA0C43994528D9EB1808F1FF37F9
:10C1C00004D2994502D9A8F102072B44A3EB090335
:10C1D000A4B2B3FBFEFC0EFB1C330CFB00F044EAE4
:10C1E0000344A04214D92C190CF1FF3304D2A0420D
:10C1F00002D9ACF102032C44241A43EA07401EB1D1
:10C20000D440002334607360BDE8F0874746DDE723
:10C210006346F1E792BB431B01214FEA154EAFB2D3
:10C22000B3FBFEFC200C0EFB1C330CFB07F840EAB2
:10C230000343984562D9EB180CF1FF3004D29845BE
:10C2400002D9ACF102002B44A3EB0803A4B2B3FB68
:10C25000FEFC0EFB1C330CFB07F744EA0344A74229
:10C260004ED92C190CF1FF3304D2A74202D9ACF1FC
:10C2700002032C44E41B43EA0040C0E7C2F1200360
:10C2800020FA03F1954090402EFA03F303434FEA5E
:10C29000154EAFB2B1FBFEFC0EFB1C10190C0CFBD3
:10C2A00007F841EA0041884504FA02F422D96918E6
:10C2B0000CF1FF3004D2884502D9ACF102002944C8
:10C2C000A1EB08019BB2B1FBFEFC0EFB1C110CFBA9
:10C2D00007F743EA01439F420ED9EB180CF1FF31F7
:10C2E00004D29F4202D9ACF102012B44DB1B41EA8C
:10C2F000004192E76046E3E76146F7E76046A3E75F
:10C300006346B7E7834206D916B9002108467BE7A2
:10C31000C6E900E0F9E7B3FA83F78FB9834201D3A6
:10C32000724508D8BEEB020460EB030301209C4673
:10C330001EB9002168E73846FAE7C6E9004CF8E77D
:10C34000C7F1200CBB4022FA0CF41C432EFA0CF16E
:10C3500020FA0CF3B84001434FEA14490EFA07F5EE
:10C36000B3FBF9F81FFA84FE09FB18300B0C08FB2D
:10C370000EFA43EA00439A4502FA07F240D9E3185D
:10C3800008F1FF3004D29A4502D9A8F102002344F3
:10C39000A3EB0A0389B2B3FBF9F809FB183308FBD6
:10C3A0000EFE41EA03418E452CD9611808F1FF3396
:10C3B00004D28E4502D9A8F10203214443EA004089
:10C3C000A0FB0298A1EB0E014145CE46434602D3A5
:10C3D00006D14D4504D2B9EB020E68EB04030138D7
:10C3E000002EA6D0B5EB0E0261EB030101FA0CFCA6
:10C3F00022FA07F34CEA0303F940C6E9003198E753
:10C400004046C5E74346D9E7F7B5002101AA40F603
:10C41000034006F0DDFD0446002869D10198C36899
:10C420001B788BB9BFF35B8FB94B1A68BFF35B8F77
:10C4300002F00902BFF35B8F53E8001F43E80024BA
:10C44000002CF9D1BFF35B8F05F030FF01AA00216A
:10C4500041F2030006F0BCFD0446002848D1019AD1
:10C46000AC4DD168D1F80100D1F8051005F1780381
:10C4700003C3104605F01AFF214601AA41F201004C
:10C4800006F0A6FD044698BB0198C3685A7885F863
:10C4900070205A88A5F872201A7985F87120B3F8AF
:10C4A0000720A5F87420B3F80530A5F8763005F01C
:10C4B000FDFE214601AA41F2020006F089FD044674
:10C4C000B0B9019FFA6805F18006531C4132186823
:10C4D0005968344603C4083393422646F7D1384698
:10C4E00005F0E4FE95F87C305B0604D46FF012048E
:10C4F000204603B0F0BD01AA002142F2030006F07D
:10C5000067FD04460028F3D1019B834EDA68D2F818
:10C510000100D2F8051003C6184605F0C7FE2146F3
:10C5200001AA42F2020006F053FD04460028DFD1C2
:10C53000019CE368B3F8012091B249B1D97839B1CF
:10C54000A5F80421DA78114606F128002AF028F926
:10C55000204605F0ABFE95F87C601F2316F0200600
:10C56000A5F8203118D1022140F66D4006F09AFB63
:10C570000446002800F0C48002210C3024F04EFD57
:10C580000123037046702146324640F66D4006F0A6
:10C590001FFD04460028ABD195F89C301F0712D52B
:10C5A00001AA002142F21C0006F012FD04460028F8
:10C5B0009ED10198C368D3F80120D3F80530C5E9AE
:10C5C000382305F073FE95F8D8309E0624D50DF17A
:10C5D0000201684625F091F90446002888D104211B
:10C5E00042F2240006F05EFB0646002800F0888038
:10C5F00004210C3024F012FDBDF800300380BDF89A
:10C60000023043802246314642F2240006F0E0FC2C
:10C61000044600287FF46CAF95F8D8305C0610D53E
:10C6200001AA002142F22A0006F0D2FC04460028AA
:10C630007FF45EAF0198C3685B7885F8223105F01E
:10C6400035FE082142F2010006F02CFB04460028CA
:10C6500056D008210C3024F0E1FC95F8D81011F0E8
:10C66000400F024640F2022308BF032388074CBF55
:10C6700043F02C0043F00C0095F8D9308F0648BFEA
:10C6800040F0400013F0090F18BF40F40060CE07DF
:10C6900048BF40F01000002124F021FF2146002275
:10C6A00042F2010006F094FC044600287FF420AF1B
:10C6B00095F87C30B5F80411980624D4C9B901AABC
:10C6C00041F2050006F084FC044600287FF410AF18
:10C6D000B5F80431019C4BB9E368B3F80120A5F823
:10C6E00004219A880D4811462AF05AF8204605F090
:10C6F000DDFD082140F6014006F0D4FA044678B981
:10C700006FF06804F4E60029F3D16FF00404EFE65B
:10C7100014010020400000201801002048010020E2
:10C7200008210C3024F07AFC95F8D830D90702465D
:10C7300053BF4FF000512CA1D1E90001284824F04B
:10C74000CEFE2146002240F6014006F041FC0446A0
:10C7500000287FF4CDAE014601AA4FF6014006F055
:10C7600037FC044620BB019805F0A0FD214601AA34
:10C770004FF6024006F02CFC0446C8B90198C36885
:10C78000B3F80130A5F8C13005F090FD95F8C1303F
:10C790005B070DD501AA21464FF6034006F018FCB1
:10C7A00030B90198C3685B7885F8C03005F07EFD2C
:10C7B00025F07AFA044600287FF49AAE08F0F2FCDD
:10C7C000044600287FF494AEEB79002B3FF490AE42
:10C7D0000821044824F0E5FD06F04AFB88E600BF86
:10C7E00010880002140100209088000200800020C0
:10C7F0002DE9F843D0E90738856903EB08042F34A5
:10C80000A5420F46164619D8DFF87080A3FB080131
:10C8100017A3D3E90023FFF773FC0346601BA0FBBB
:10C82000080123F07F4412A3D3E90023FFF768FC3B
:10C8300020F07F403C603060BDE8F883DFF83C903A
:10C840000BA3D3E90023A5FB0901FFF759FC20F056
:10C850007F4409480A2106A3D3E90023E8FB090124
:10C86000FFF74EFC20F07F403C603060BDE8F8836D
:10C870008D49FD1A0700000000166BF100CA9A3BB3
:10C880009FED097B0E4B0F4A0F4983ED007B9FED17
:10C89000087B82ED007B9FED087B0C4B002281ED35
:10C8A000007B1A600EF04EBFFFFFFFFFFF1F00006E
:10C8B00000000000000000001F0000000000000059
:10C8C000D001002030230020C80100206C4C002043
:10C8D000002800F05F812DE9F04FB54C94F86A20F4
:10C8E00012F001058DB040F0A68194F82500FF23D9
:10C8F00000F0030084F8263017F05CF894F86A0022
:10C90000420727D494F8292094F8353004EB8202AA
:10C9100004EB8303D66AD3F8388086B1A448314645
:10C9200010F0EAFC33785B0605D506210BF098FE83
:10C93000002800F082819E48414610F0DDFC3378EB
:10C9400013F00E0F40F0B780236A93B10C200DB0A6
:10C95000BDE8F08F2A4604F16B01C0F3C00017F068
:10C96000A1F9FF2884F82600CCD0284617F03CF81F
:10C97000C8E70EF0B9F98146002800F06C810EF08E
:10C98000BFF98246002800F0638110F0BDFF054624
:10C99000002800F06281D0F894004FF6FF732B86D8
:10C9A00005F11C0B002800F04E8105F1840105F112
:10C9B00088020BF061FEB5F882307E4A23F4EF6303
:10C9C00023F0070343F48C7343F00103A5F882308E
:10C9D0001346D2F80120C5F8AB21C5F8B12113F8F0
:10C9E000012B9B88A5F8AF31A5F8B53195F8AA3190
:10C9F00002F0010262F3000362F3410385F8AA31F9
:10CA000095F8433003F03F0363F07F0385F843302C
:10CA100095F89A3023F0070385F89A3095F8483056
:10CA200023F00F03002785F848304FF4C023C5F8E2
:10CA300098312846C5E91577C5F89470A5F898701F
:10CA400085F84570EF86C5F83A70EF65A5F89E71D8
:10CA5000A5F8947113F042F985F86071C5F86491F6
:10CA600011F03EFA95F8A43160F3020385F8A43181
:10CA700011F03CFA95F8A43160F3C50385F8A431B0
:10CA800095F8903167F3410385F8903101212846EC
:10CA900011F086FE05F1E00012F0F8FEC4E9189AE4
:10CAA000C4F820B0C5E905772F70ED6118F0DCF906
:10CAB000002840F0C48094F824300121C3F34203DD
:10CAC0000DF12B008DF82B300BF074FF024600287F
:10CAD00062D098F80110304610F0C8F93123364979
:10CAE000A360364BB4F86870A0FB01010025C018A4
:10CAF00041F107012CA3D3E90023C4E905552570B2
:10CB00006560E560FFF7FCFA20610DF013FA00F1B3
:10CB100009083FB9357805F00F05A5F10105B5FA0B
:10CB200085F56D0994F82400236965F3000010F081
:10CB3000010584F824004BD0214A0992002010609E
:10CB40000225204A204F04930BAE01930592032146
:10CB5000CDE90200069443460090089607972A46BE
:10CB60000B950DF0E9F831460EF080F9A0B91749A0
:10CB700005914AF2D8330093CDE90300CDE90100D5
:10CB80000797089606944346012203210B950DF062
:10CB9000B7F843E010F0BAB8236A002B3FF4D6AEE2
:10CBA00010F070F8D2E600BF8D49FD1A07000000B2
:10CBB000A44C0020C7B7030000CA9A3B8C49FD1A59
:10CBC000984C0020E9CE010099A00100CDC90100D8
:10CBD000274A2848049303F24713069402959121AB
:10CBE0001360A7FB000301FB0731234B0793234B83
:10CBF00005934FF6FF730992022703930BAE1AA316
:10CC0000D3E900230B970896FFF77AFA4346CDE95C
:10CC100000503A46284603210DF08EF831460EF0BA
:10CC200025F90028B8D194F86A300120034384F82C
:10CC30006A3016F0A1FE002089E6122087E610F087
:10CC400021F8032083E605F18C00C5F89400ACE6DA
:10CC500048460EF04FF8072079E650460EF056F899
:10CC600048460EF047F8F6E78D49FD1A0700000028
:10CC7000984C0020002AE78499A00100E9CE010029
:10CC800070B590F824308AB0C3F342030D460446D1
:10CC900001210DF1230016468DF823300BF08AFE9A
:10CCA00071780246284610F0E1F81F491F4AA0FBA0
:10CCB0000131981841F1070119A3D3E90023FFF7C7
:10CCC0001FFA23699842054621D21B1A00220192BD
:10CCD000174A0293174BA21AA3FB023202219209B0
:10CCE00000230A4409AE099113490591CDE90333A4
:10CCF0000321D2B20696009318460DF07DF8314616
:10CD00000EF0B4F838B9256100200AB070BDFBD927
:10CD1000C21A0023DBE70C200AB070BDAFF300801D
:10CD20008D49FD1A0700000000CA9A3B8C49FD1A84
:10CD3000A44C00208988888899A001000000000088
:10CD40002DE9F04F06468DB08A4601200221994612
:10CD500015461AF027F800220B90022101200BF053
:10CD6000DBFC3B494FF4DC7230460BF065FCC71C22
:10CD7000384B0093FFB201964B463A460121002002
:10CD80000DF094F810F0FD0F0ED0334A33493448BB
:10CD900040F68F0323F06DF9002383F31188BFF36E
:10CDA0006F8F0323184602DF2E4CA5FB044526A3F4
:10CDB000D3E9002320462946FFF7A2F908960696F4
:10CDC00033690493284B20F07F48A8FB0331E01A15
:10CDD000264B07934FF00702254B059302FB0811E2
:10CDE0004FF6FE7365EB010103934FF47A72002353
:10CDF000FFF786F94FF0000BCDE90180CDF800A0D8
:10CE00004B463A46012158460CF07AFF10F0FD0FD0
:10CE10000DD0114A1149124840F6A40323F029F914
:10CE20008BF31188BFF36F8F0323184602DF0B9B30
:10CE300013B90DB0BDE8F08F0122022110460DB0EC
:10CE4000BDE8F04F0BF068BC8D49FD1A07000000EB
:10CE500038230020A9D8010028970300EC9703008D
:10CE60000892030000CA9A3B8D49FD1A49D8010077
:10CE7000612E0200000000002DE9F0418468228E3E
:10CE80004FF6FF739A428CB045D00546204613F00A
:10CE9000C3F92B7D012B00F02281022B00F01581BC
:10CEA000002B00F0F48094F86061002E40F01081B7
:10CEB0002B8A678F94F94320CDE90A6673B3002A61
:10CEC000C0F25A810023A4F89A31AA7C238FFD185E
:10CED00002F003030135012BADB23BD0B4F89E3113
:10CEE000002B00F005819D4280F059815B1B9BB2B5
:10CEF0000022062BA4F89E31628740F2F68094F956
:10CF000043309342C0F25081002326E09DF8271061
:10CF1000204611F009F90CB0BDE8F081002AB8BF35
:10CF200084F88561238FAA7CFD1802F00303013584
:10CF3000012BADB20ED0B4F89A31002BCED0AB425B
:10CF400040F23C815B1BA4F89A31B4F89E31002B6F
:10CF5000C9D102E00023A4F89E3194F8482063F37D
:10CF6000820284F8482029460DF12702204612F05B
:10CF7000F1FE7430CAD0B4F898312BB1AB4240F214
:10CF8000EC805B1BA4F89831B4F894312BB1AB4220
:10CF900040F2DA805B1BA4F89431658F16B9AF427A
:10CFA00000F0C9800135ADB294F8DD3013F001070F
:10CFB00031D1DDE90A130A46002B40F0CC8000296C
:10CFC00000F0BB801F461846228EE4690694CDE926
:10CFD000035603329A4D0290CDE90017D2B20121D7
:10CFE000002005950CF008FF10F0FD0F93D00DF018
:10CFF00067FF84428FD0934A934994484FF4AE63BD
:10D0000023F037F8002383F31188BFF36F8F0323D6
:10D01000184602DF7FE794F943206FF30003002AEC
:10D0200084F8DD307FDB94F88200C0F3C00100F0AB
:10D03000070017F031FDB4F87A20B4F878301344C3
:10D04000628D03F23F1313440344814A8148072150
:10D05000E3FB0021104678A3D3E90023FFF750F843
:10D06000DDE90A1320F07F4220692261904235BF3A
:10D07000171A801A002000270A46002BA4D157EA6D
:10D08000010CA1D1002858D019461F469CE794F8FE
:10D090009A3003F01803182B7FF405AFA18EB4F873
:10D0A00096218B1D9A42C4BF931F5B1AB4F892114C
:10D0B000CCBF9BB21346994200F09C80A4F89231F9
:10D0C000A4F89431A4F89821EDE63D2684F8606137
:10D0D000314620460CB0BDE8F04111F025B80023E0
:10D0E000A4F89831A4F89431DDE60126334634E7FC
:10D0F000628E052A97BF013240F2E2434FF4FA7381
:10D1000092B203FB02F2B4F89C3142F2107101FBBF
:10D110000323013BB3FBF2F39BB2A4F89E31002B37
:10D120007FF4E1AE19E794F88300012100F00700D5
:10D1300017F0B4FC7FE7354636E7002D43D00027D3
:10D14000114638463B463FE70023A4F89431204679
:10D1500012F0A2FE21E7384636E70DF019FE01462F
:10D16000A0B30023A4F89831238EC3801B2303713E
:10D1700000680DF0DDFD07E794F885316BB3013BE6
:10D1800084F8853104F1E008404612F0C1FBB8B3E1
:10D19000404612F0BDFBB8B30023638792E6082136
:10D1A000204610F0C1FFB6E6A7B9D4F888315A0876
:10D1B00013F0010336D1C4F88821A5E63E212046AC
:10D1C00010F0B2FFA7E6002EB9D1A4E60123A4F81F
:10D1D0009831D9E613460126BFE60AAA0BA92846CC
:10D1E000FFF706FBDDE90A231343CBD0237884F84D
:10D1F0008531C7E7B4F8981100297FF454AE5FE792
:10D20000FF2010F04DFFC3E70246D4E921010BF0E7
:10D210004BFA0028C0D194F848301B0744BFA38EB6
:10D2200063874FE642F000421E46C4F888213B4621
:10D2300093E600BFAFF300808D49FD1A07000000A0
:10D2400005D801002897030068980300089203009E
:10D250008C49FD1A00CA9A3B2DE9F04F87B0CDE901
:10D260000423BDF8442003780292BDF84820BDF89D
:10D2700040A0BDF84C90878F019104460392002B8B
:10D2800000F0D480013FBFB2A368D4F81CB1A7EB73
:10D29000090292B2002B00920ADAE168626823F078
:10D2A000004391422CBF8B449344A360ABEB030B30
:10D2B00094F88200C0F3C00100F0070017F0ECFB07
:10D2C000658E052D40F2AA80009B15FB03F5ADB2DB
:10D2D00040F2E248BAF1050F40F29480B4F87A20A7
:10D2E000B4F87830134403F2D51303447A4A7B48E8
:10D2F0000721E3FB00214FF09613A362962310460B
:10D30000A38573A3D3E90023FEF7FAFE564620F067
:10D310007F4040F2E24308FB05F103FB06F6B1FB58
:10D32000F6F81FFA88F5206106FB05F08142A84651
:10D330005AD2401A694966A3D3E90023A0FB010130
:10D34000FEF7DEFE20F07F408344E38EB4F8242114
:10D350001344994494F84330A9EB0709C844DB0906
:10D36000A4F8368069D15E4A5E495F4840F667138B
:10D3700022F07FFE002585F31188BFF36F8F032312
:10D38000184602DF3746029BA386039BA4F89C3114
:10D3900031462046A4F832A012F018FD534BA18E5E
:10D3A0003344881DB3FBF6F39AB29042A4F8962159
:10D3B00004D2C1F57F41FA310A4492B2019BA4F82C
:10D3C000922113B10023A4F89E315B463A462946C8
:10D3D0002046FFF7B5FC94F8903143F0010384F840
:10D3E000903107B0BDE8F08F091A3C4838A3D3E963
:10D3F0000023A1FB0001FEF783FE20F07F40ABEB92
:10D40000000BA2E74FF096130AF10106A3629623E0
:10D41000A385B6B20A204FF4FA737CE7009B01356E
:10D4200015FB03F5ADB24FF4FA7853E7C38E1F44F2
:10D43000B0F824311F44BFB226E7E26C0099636D57
:10D4400002FB1133636517F05FFD074694F8840112
:10D45000C0F3420017F05AFD074406FB07F7244BC0
:10D4600007F5742707F23F27A3FB0737BF0C636D4F
:10D47000E76405FB07F072080344963A934228BF1D
:10D480001346C4E91423049B144D40F2E24808FB00
:10D4900003F3E3650023A0FB0501C4F88C310CA362
:10D4A000D3E90023FEF72CFE124B059AABEB000BE1
:10D4B000A3FB0230800A08FB00F0A0FB050104A3D7
:10D4C000D3E90023FEF71CFEF71B20F07F455AE747
:10D4D0008D49FD1A070000008C49FD1A00CA9A3BCD
:10D4E00028970300E0920300089203007FC3C9015C
:10D4F00083DE1B435917B7D12DE9F04F04460B6863
:10D50000077F1668D3F800A0638CD0F81E0095B092
:10D5100015464A7CADF84C30FF2AC7F38013884685
:10D520000D9212908DF83F3076D199461A4612AB83
:10D5300093E803000DF1400B1090ADF84410F8098A
:10D540000AF1710127680A915B460C900B9710F065
:10D55000D3FC0A99002847D196F8AA310C9A0A9070
:10D5600069F3410362F3000386F8AA311098BBF80F
:10D570000430C6F8B101A6F8B531DAF87130C6F852
:10D58000AB318B88A6F8AF31E38D94F83010A972D7
:10D590002B81D4F82A306B60D4F83A30C5F82230A9
:10D5A00005F1220094F83E30037105210BF002FAD8
:10D5B00095F8273000F03F0060F3050385F8273029
:10D5C00094F83F30C3F3040185F82810A18EE98256
:10D5D000012803F01F0389B206D91B3303F01F0390
:10D5E0000B2B01D80A9A59BB0022CAF8142095F8CF
:10D5F0002C300B9862F3000385F82C30E568012687
:10D60000214626710DF088FB28682E7129460DF001
:10D610008FFB15B0BDE8F08F0DF1400B10460DF1FA
:10D620003F015A4615F02AFF9DF83F90277F09F1E8
:10D6300002095FFA89F98DF83F9009F001027EE74F
:10D64000D8F800305A60E38E2B83EB8A40F2E2492F
:10D6500009FB03F71146638E0A93304612F0CAFBAA
:10D6600094F83F3096F884215B0963F3430286F80F
:10D67000842117F049FC0C9096F88401C0F3420015
:10D6800017F044FC0C9BC04A034407FB03F303F56B
:10D69000742303F23F23A2FB03239B0C2B637B0821
:10D6A000963B6B6394F8313009FB03F36B64238F73
:10D6B000A6F89C313946304612F088FBB34BB44A89
:10D6C000C6F8A0213B44B3FBF7F39AB2A6F8962123
:10D6D000298B881D824204DDC1F57F41FA310A445D
:10D6E00092B2A6F892216B68C6F88831234613F8E7
:10D6F0001C2FC2F34019DA0700F103814FF4807345
:10D70000A3839AF8260016F0E1FB04F12B0300280E
:10D7100000F0F380626AC4F82B20228D9A800D9B62
:10D72000FF2B00F02681BDF84C301298A4F8293068
:10D73000C4F82500BBF80430A4F8233010989DF8F5
:10D740003F30C4F81F00A377EB8A63862B8BA38638
:10D75000B6F89C31E38696F88431C3F3420384F82B
:10D760003830304610F0DCF8A882E08021460B9873
:10D77000D8F804400DF0D0FAAB8AE3801C23D4F82B
:10D7800000B02371B9F1000F40F0D28084F81C90F2
:10D79000214658460DF0CCFA95F86700B5F85C9034
:10D7A000B5F85E40012100F0070017F077F94C440E
:10D7B00004F2D514DFF8E4910444834675484FF031
:10D7C00096130721C5E90333E4FB09013123002443
:10D7D000B36074606AA3D3E90023F460FEF790FCA1
:10D7E00020F07F4030612D6B0A9A7D1BD8F80C70B9
:10D7F00040F2E24303FB02770221224601200AF0B5
:10D800008BFF50460FF034FD07F2B3470246A7EBFB
:10D810000B07A7FB0901174659A3D3E90023FEF71D
:10D820006FFCCDF804A0D8F808305B49009120F0D7
:10D830007F49BA1C3A3BD2B24B44012120460CF03E
:10D8400035FB012800F081809AF82430DB0767D48B
:10D85000304610F065F8514BA5FB035A044648A327
:10D86000D3E9002328465146FEF74AFCD8F8083091
:10D870004B4A0792A3F13A084A4B069620F07F479D
:10D88000A7FB0331E81A484B05934FF4F57308934F
:10D8900033694FF0000BCDE903B34FF0070303FBEF
:10D8A00007116AEB01014FF47A720023FEF728FC9E
:10D8B0000334E4B2CDE90170CDF80090434622462E
:10D8C000012158460CF01CFA10F0FD0F0DD0374A1C
:10D8D0003749384840F2EB1322F0CBFB8BF3118829
:10D8E000BFF36F8F0323184602DF01220221104687
:10D8F0000AF012FF15B0BDE8F08FC4F82B00988035
:10D900000DE72A4A2C492B48FD2322F0B2FB0023C5
:10D9100083F31188BFF36F8F0323184602DFEDE610
:10D92000002301220093184611460CF07DFA8FE780
:10D9300095F8273043F0400385F82730281D15F06F
:10D94000A7FB4FF00109288520E70DF0B9FA8245C1
:10D950003FF47AAF154A1949164840F2922322F053
:10D9600088FB84F31188BFF36F8F0323184602DF0F
:10D970006AE70022C4F82520A4F82920DAE600BFCF
:10D980008D49FD1A0700000083DE1B437FC3C901D8
:10D99000404B4C008C49FD1A212E020000CA9A3BD4
:10D9A000ED2D02008D49FD1A612E0200489D0300F5
:10D9B000EC97030008920300FC940300A49D03006D
:10D9C00010B5334C3349002304F1FF3C14F83320E5
:10D9D000072A02EB820E05D811F83E206FF345129C
:10D9E00001F83E201CF833206FF300020CF83320BE
:10D9F0000133082BEAD1284A284C002313700A78F7
:10DA000063F300020A7091F8282063F3000281F8A2
:10DA1000282091F8502063F3000281F8502091F8FB
:10DA2000782063F3000281F8782091F8A02063F356
:10DA3000000281F8A02091F8C82063F3000281F869
:10DA4000C82091F8F02063F3000281F8F02091F8EB
:10DA5000182163F3000281F81821114A9FED0A7B17
:10DA60001370104B83ED007B0F4B236028B1BDE892
:10DA700010400E490E4828F072BFBDE810400C4817
:10DA800028F07BBFAFF30080FFFFFFFFFFFFFFFF2A
:10DA900039580020F8560020B7730020085600209F
:10DAA000B6730020002C0020A0BB0D00DD3B02005F
:10DAB000D02B0020000000002DE9F04F8FB00DF1B9
:10DAC00037010446DFF8E0A0DFF8E0800DF1360012
:10DAD0000DF0A4F99DF836309DF837B00B930CF09B
:10DAE00029FADAF80060A6FB085629A3D3E9002337
:10DAF0000027814631462846FEF702FBCDE907772D
:10DB0000069420F07F44DAF80400234B0593A0FB31
:10DB100008011FA3D3E90023FEF7F2FA1F4B20F000
:10DB20007F40A4FB0331072202FB0411CDE90370FF
:10DB3000E81A66EB01014FF47A720023FEF7E0FA6F
:10DB40000097CDE901404B460B985A4603210CF053
:10DB5000D7F810F0FD0404D06FF08B000FB0BDE8D3
:10DB6000F08F0F480F4A00231FF0EEF920B9DAF8C2
:10DB70000C000FB0BDE8F08F9DF837209DF83600FF
:10DB80000094234603210CF04FF96FF07300E5E792
:10DB90008D49FD1A07000000894102008D49FD1AD8
:10DBA000AC580020447B0B00C458002000CA9A3BAC
:10DBB00038B50F4D04460CF0BDF9A9680CF0BCF95E
:10DBC000696803460B48B3FBF4F4A1FB00011C4455
:10DBD00005A3D3E90023FEF793FA20F07F408442A7
:10DBE00094BF0020012038BD8D49FD1A07000000B8
:10DBF000C458002000CA9A3BF0B5C468636883B07B
:10DC00000546002B64D118F04DFC082018F070FC7C
:10DC10000021084618F05EFC00222521082018F09B
:10DC20009BFC474B019301A818F082FC454940F248
:10DC30005B6018F033FD237AC3F3420262F30613EC
:10DC40002046237217F07EFB16F01CFA58BB637A4D
:10DC50009B071FD127682E68384616F0B9FE064488
:10DC60006A6806F10901012018F060FE18F01EFF35
:10DC700020460FF009FB811C3246C9B2384616F027
:10DC8000B5FE054678BB204616F04AFE88B900204E
:10DC900003B0F0BD012015F063FE4178821C0078CE
:10DCA00018F0E4FDD6E7607A10F0030018BF0120F9
:10DCB000F1E7254A2549264840F2294322F0D9F9BF
:10DCC00085F31188BFF36F8F0323184602DFDEE769
:10DCD00093F82C309A0796D01E48214618F0A0FBE6
:10DCE00018F086FCD3E7184A1B49194840F2114343
:10DCF00022F0BFF9194B0721A5FB030301FB0531F6
:10DD00000DA3D3E90023FEF7FBF915490246154898
:10DD100022F0AFF9002585F31188BFF36F8F03233D
:10DD2000184602DF1048214618F07AFB18F060FC14
:10DD30006FF08B00ACE700BF00CA9A3B0000000008
:10DD4000D6BE898E55555500A0A10300DC93030073
:10DD5000089203007D4B0200E09203008D49FD1AFA
:10DD600050A2030024A20300194F0200000000008B
:10DD70002DE9F041C468A28A4FF6FF739A4282B03F
:10DD800000F0DF80054617F021FE2B89628B208C86
:10DD9000A3831A4492B2104494F82730E28380B2ED
:10DDA000411C21845E064FF00001618304F12201D1
:10DDB00000F1A18003F03F000B4694F8281000907A
:10DDC00004F1290015F01CF90646D4E90C31A28BA8
:10DDD00002FB0333A26B1344E26B8B4294BFD21855
:10DDE00052188A4228BF0A46E263616C226C94F89A
:10DDF00067301144616494F87E2094F82C10C3F3CA
:10DE0000020363F3061112F004024FF0000384F8DA
:10DE10002C10A363236478D018F044FB082018F07A
:10DE200067FB201D18F084FB2389A17A40F25B6018
:10DE300043EA014118F032FC304616F0E9FD214674
:10DE4000594818F0EDFAA08918F064FD94F866209E
:10DE500094F86700C2F3C003002102F0070200F04B
:10DE6000070018F081FC204617F05AFE27682E683C
:10DE7000384616F0ADFD06446A6806F10901002037
:10DE800018F054FD804618F0E5FD002018F0FCFD68
:10DE9000E36B94F8670003F12F02636C00F0070056
:10DEA000012103EB420518F095FB4544054494F825
:10DEB000670000F00700022825D004280CBF4FF4AB
:10DEC000BC73282301211D4418F086FB284418F058
:10DED000B3FDA18A03313246C9B2384616F086FD39
:10DEE0000546002834D1204616F01AFDD0B900208E
:10DEF00002B0BDE8F0810A4603F03F03218D15F022
:10DF0000CBF8064661E71823DCE7D4E91A010AF0EA
:10DF1000CBFB002880D194F87E3043F0040384F8D2
:10DF20007E3079E7214A224922484FF4B07322F02B
:10DF3000A0F885F31188BFF36F8F0323184602DF23
:10DF4000D5E71D48214618F06BFA18F051FBCEE7D3
:10DF5000164A1A4917484FF4AB7322F08AF8184B47
:10DF60000721A5FB030301FB05310DA3D3E9002322
:10DF7000FEF7C6F813490246134822F07AF8002546
:10DF800085F31188BFF36F8F0323184602DF0F4814
:10DF9000214618F045FA18F02BFB6FF08B00A7E72D
:10DFA00000CA9A3B00000000995D0200DCA2030059
:10DFB000DC930300089203007D4B0200E092030013
:10DFC0008D49FD1A30A3030024A20300594B02001F
:10DFD0007FB51F4C1F4BC4F80833C4F848331E4BA1
:10DFE00000254FF0FF304FF0FF31C4F80855C3E96A
:10DFF00002014FF48033C4F80433184B02264FF467
:10E0000000320121C4F804631120C3F880212A469C
:10E0100003F022FE112003F0EFFD114A0123A3605B
:10E02000236013600F4B0093CDE9015506A3D3E99C
:10E03000002328461BF058FC30461AF009FE2846FB
:10E0400004B070BDAFF300809DF57F0000000000BC
:10E050000010014003000F00F02C002000E100E060
:10E0600034690020F5970200014826F0DABA00BFB3
:10E07000B8780300012B07B50FD112780848012AA0
:10E0800014BF002257228DF8072000210DF107024E
:10E0900026F03AFA03B05DF804FB6FF08500F9E76B
:10E0A000B8780300012B13B5144611D10A480DF1BD
:10E0B0000702002126F04DFA002807DB9DF8073003
:10E0C000A3F15702534253412370002002B010BD08
:10E0D0006FF08500FAE700BFB878030001481FF031
:10E0E0000DB900BF2802002007B528F0C5FD4FF488
:10E0F0007A72A0FB020302FB0131C00B074A40EA1F
:10E100004140106000234FF400420548CDE9002350
:10E110001FF0AEFF002003B05DF804FB703000205C
:10E12000D0090020014B187800F024BA7872002042
:10E13000044B1A78824202D01870FFF7F3BF002018
:10E14000704700BF7872002008B528F095FD4FF4A5
:10E150007A72A0FB020302FB0131084AC30B12686A
:10E1600043EA41439B1A47F23052934204DDBDE833
:10E1700008400120FFF7DCBF08BD00BF7030002061
:10E1800008B528F079FD4FF47A72A0FB020302FB78
:10E190000131C00B044A40EA41401060BDE808402C
:10E1A0000020FFF7C5BF00BF70300020014B18787A
:10E1B000704700BF78720020F8B5044610B90025FA
:10E1C0002846F8BD0378002BF9D00F4E0F4FBE4202
:10E1D0000FD30D4EBE42F2D2306828F0EEF830B1C7
:10E1E000356821462868FDF7A5FF0028E8D00436E9
:10E1F000F0E7306828F0E1F818B135682B68A342E1
:10E20000DED00436E3E700BFA4CC0300C0CC03009B
:10E2100070B5194C194D8CB00022002303A920467B
:10E220001EF0FCFC08B10CB070BD2B68059E586850
:10E23000DDE9031221F003FA0028EDDBFF238DF85E
:10E240001830B6FA86F35B0907908DF8203028F075
:10E2500013FD4FF47A72A0FB020302FB0131C00BE5
:10E2600040EA4140C90B8DE8030006ABCDE90A0145
:10E270000FCB00F099F9CFE7D80A00205C310020DD
:10E280001FB50A4C2468A46884420DD183F00103B1
:10E29000CDE90112039306480022002301A91EF0D4
:10E2A0005FFC04481FF02AF804B010BD5C31002068
:10E2B000D80A00204C3100201FB50023CDE90233DD
:10E2C000044B8DF80C0001A8019321F0F1F905B081
:10E2D0005DF804FB8C810300014B0360362070471E
:10E2E0007430002038B5044628B3144D2B6883429F
:10E2F0001FD02BB1986818B183685B6803B1984749
:10E300000F49104B8C4214BFED2100213622002012
:10E3100021F0AFF900280DDBA0682C6048B18368BC
:10E3200009491B6898472B68986883689B6803B104
:10E330009847002038BD6FF01200FBE75C310020E9
:10E34000788103007430002081E2000038B5054672
:10E3500048B90648FFF7C6FF041E02DB2846FFF750
:10E36000ABFF204638BD6FF01504FAE77881030053
:10E37000F7B50C4615460D4901AA1E4622F05AFC77
:10E3800068B1019B6BB9012C0DD1094F224639466A
:10E390003046A847002802DD3878FFF7D7FF03B0E2
:10E3A000F0BD0020FBE76FF01500F8E71FB4030095
:10E3B000680900200148FFF795BF00BF788103007E
:10E3C00008B50749074828F06EFA074A002342F8C3
:10E3D000043B0133362BFAD1BDE80840FFF7EABF12
:10E3E00011E200004C3100207430002030B51D4C8B
:10E3F00004EB00148FB0606883684021DB689847A5
:10E4000068BB04AD049068606189606883682A46CF
:10E410001B69984718BB95E803000123069307ABD7
:10E4200083E803006389ADF8243028F025FC4FF41D
:10E430007A75A0FB053205FB0121DB0B43EA414362
:10E44000C90BCDE90A31237B8DF830300EAB13E9CF
:10E450000F008DE80F0006AB0FCB00F0CBF80FB02C
:10E4600030BD00BF48020020F8B50D4D0024012644
:10E4700006FA04F3D943BFF35B8F55E8002F02EA95
:10E48000010045E80007002FF7D1BFF35B8F13426F
:10E4900002D02046FFF7AAFF0134052CE8D1F8BDD1
:10E4A00060310020064901EB0012506830B18368EA
:10E4B0009B68114608310BB1024A1847704700BFEC
:10E4C00048020020C9E4000010B5104C0C1B402C81
:10E4D0001BD8241128F0A1FA90B1BFF35B8F012360
:10E4E0000B4AA34052E8000F184342E800010029FC
:10E4F000F8D1BFF35B8F0748BDE810401EF0FEBEA9
:10E500002046BDE81040FFF771BF10BD500200204B
:10E51000603100203802002005289ABF024B03EB2F
:10E5200040000020704700BF5C090020F8B50F4D87
:10E530000F4E761B07460C4605EBC105C6F3C70612
:10E54000A64201DC00200CE02A683B689A4209D10F
:10E550003C716B6838461B68984718B1431E012B05
:10E56000F0D9F8BD01340835EAE700BF70BE0300FA
:10E57000C0BE03001FB50023CDE90233044B8DF864
:10E580000C0001A8019321F093F805B05DF804FB9D
:10E59000908103000268034B9A420CBF08300020B0
:10E5A000704700BF9081030084B030B589B00CACD7
:10E5B00084E80F00002301930CAD084B00930FCDAE
:10E5C00002AC0FC495E8030084E80300684621F01C
:10E5D0006FF809B0BDE8304004B070479481030083
:10E5E0000268034B9A420CBF08300020704700BFFE
:10E5F0009481030084B030B58BB00EAC84E80F007A
:10E60000002301930EAD084B00930FCD02AC0FC455
:10E6100095E80F0084E80F00684621F049F80BB038
:10E62000BDE8304004B07047988103000268034B96
:10E630009A420CBF08300020704700BF9881030049
:10E640001FB50023CDE90233044B8DF80C0001A85F
:10E65000019321F02DF805B05DF804FB9C810300C7
:10E6600082B038B504A981E80C00054611481EF0B7
:10E67000C9F80446A0B16B68012B0CD0022B05D061
:10E68000A3B9BDE8384002B021F044B821F049F800
:10E6900000282046F5DCBDE8384002B021F033B850
:10E6A0006FF00400BDE8384002B070476FF085009D
:10E6B000F8E700BFE5B4030082B010B502A981E815
:10E6C0000C0004460B481EF09DF878B16368022BDD
:10E6D00004D00020BDE8104002B0704721F021F8BE
:10E6E0000028CCBF002001206060F2E76FF004003A
:10E6F000F0E700BFE5B403000D4A52F820300133C3
:10E7000042F820300B4A0123117883400B430A4919
:10E710000978DBB2137023EA01030849084A097833
:10E7200050780B43181A537018BF0120704700BF70
:10E73000643100207B720020797200207A72002000
:10E740007609002010B5114A52F82030002B19DD4F
:10E75000013B42F820300E4A2BB913780121814049
:10E7600023EA010313700B480B4B047810780B4A13
:10E770005978127820EA040010435870401A18BFE4
:10E78000012010BD6FF01500FBE700BF64310020D1
:10E790007B72002079720020760900207A720020B6
:10E7A000044A012312788340D8B213401B1A5842FE
:10E7B000584170477B72002010B5084B084A18700A
:10E7C000084B51781C78084B1B7823EA0403184344
:10E7D0005070401A18BF012010BD00BF7A7200208F
:10E7E00076090020797200207B720020074B0022FE
:10E7F0001A70074B074A1978074B50781B7823EAA1
:10E800000103181A537018BF012070477A72002054
:10E8100079720020760900207B720020A0F1E003CD
:10E82000072B03D82030C0B2FFF766BF064B062285
:10E8300013F8011F19B1013AFAD10020704718707E
:10E840000028F8D0F9E700BF78090020A0F1E00324
:10E85000072B10B405D820305DF8044BC0B2FFF789
:10E8600071BF0023064A194612F8014F0133A04236
:10E8700008BF1170062BF7D100205DF8044B7047DC
:10E8800078090020A0F1E003072B03D82030C0B2A4
:10E89000FFF786BF064A002312F8011F884204D002
:10E8A0000133062BF8D1002070470120704700BFCC
:10E8B00078090020024B00221A605A60704700BF9E
:10E8C00077090020B0F5805F10B510D20949002308
:10E8D00001EB4302B2F8014024B10133062BF7D11A
:10E8E000002010BDA2F801000028F6D0F8E76FF074
:10E8F0008500F6E76909002030B50023074C19466A
:10E9000004EB43020133B2F80150854204BF517059
:10E910009170062BF4D1002030BD00BF69090020A2
:10E92000024B00221A605A609A6070476A09002000
:10E93000074A002302EB4301B1F80110814204D0E1
:10E940000133062BF6D1002070470120704700BF2D
:10E950006909002000487047760900200048704788
:10E960006909002082B070B504A900680A9E81E898
:10E970000C00144620F0DDFD0569059833687168C8
:10E980003638221813B355F83200034405EBC200A1
:10E9900044680C4484EAE4701049A0EBE4708842B7
:10E9A000C1BF0F4894FBF0F15B1800FB11440899BC
:10E9B0004FF4B4700988B0FBF1F093FBF0F100FB69
:10E9C000113345F8323005EBC2035C600A32002097
:10E9D00045F82210BDE8704002B070473F420F007A
:10E9E00040420F002DE9F0478446164E164FDFF8DF
:10E9F0005C8000208A4603464FF001094FEA531E0F
:10EA000003F01F0257F82E4009FA02F2144212D006
:10EA10007469D8F81850D8F81C10651941EBE474E3
:10EA2000AC457AEB0404A3BF57F82E4024EA020257
:10EA300047F82E2001300133262B06F12C06DDD1BC
:10EA4000BDE8F087348203007033002040100020BE
:10EA500070B5094B094D1E7800241C702EB1284654
:10EA600020F029FE0134B44201DB304670BD203570
:10EA7000284620F01DFEF5E77D72002040100020A2
:10EA80002DE9F04F40488BB027F077FF3F4B002631
:10EA9000C3E900663E4BB3F900A047F6FF739A4501
:10EAA0005DD03C4F88234FF6FF7203FB06F0C4197C
:10EAB000395A91424AD13849DFF8ECB00A789BF8CC
:10EAC000009001320A7035491FFA8AF32C223B521A
:10EAD00002FB03130830B3F910803149C845A8BFC1
:10EAE000C84628EAE8725201384428F05CFC4FEA34
:10EAF0004813DFF8ACC0A4F80280C6460593CE45A3
:10EB000032DB882303FB067700223B6A06920AF178
:10EB10003B020792234AD917C2E900311F4ACDE9C7
:10EB200008312C230AFB032AA9EB080901238BF8DF
:10EB3000009002930AAB13E9030000228DE8030062
:10EB4000079B0AF11C0020F038FD04E00136042E7A
:10EB5000ABD1FFF77DFF0E4A47F6FF7313800BB072
:10EB6000BDE8F04FFFF774BF059B0CEB03050FCD1D
:10EB700064460FC495E80F000EF1010E84E80F0003
:10EB80000CF1200CBBE700BFF00D0020703300201B
:10EB900066090020200E00207C72002034820300D1
:10EBA00040100020000000207D720020184B194901
:10EBB00019482DE9F0414FF6FF721A80A3F888201A
:10EBC000A3F81021A3F8982127F0C9FE134ADFF813
:10EBD00050E000230127590903F01F05B2F910C0C6
:10EBE000890007FA05F59046002407E058F8040B61
:10EBF0000EEBC000013446582E4346506445F5D311
:10EC00000133262B02F12C02E5D10020BDE8F08172
:10EC1000200E002045ED0000F00D0020348203009E
:10EC2000C03100202DE9F843404B414E1C78D6E915
:10EC30000027E4BB02F1004301333B4335D06FF0C2
:10EC4000004528F019F84FF47A77A0FB070307FB7B
:10EC50000131C30B43EA4143AB424FEAD131A141F9
:10EC600060DA28F009F8A0FB070307FB0131C00BAD
:10EC700040EA4140281A64EBD131C90341EA5041CE
:10EC800040F2E733C003C0184FF47A724FF000032C
:10EC900041F10001FDF734FA02460B4625481EF00B
:10ECA0009BFB0028A8BFC6E90054BDE8F8830024F8
:10ECB0002149DFF88CE06FF0004523464FF0010852
:10ECC00058095EF820C003F01F0008FA00F010EAAF
:10ECD0000C0F08D048694FEAE07CA8427CEB04099D
:10ECE000BCBF054664460133262B01F12C01E7D158
:10ECF0001249D1E90631ED1844EB0104BC4208BFCA
:10ED00009542D2D06FF000439C4208BFB5F1FF3F5F
:10ED100097D100230022C6E900230648BDE8F84346
:10ED200027F02BBE00221346B8E700BF7D720020FB
:10ED3000E80D0020F00D0020348203004010002078
:10ED40007033002038B5114CD4E9003213431CD085
:10ED500027F092FF03460D46D4E900014FF47A7480
:10ED6000A3FB043204FB0522DB0B43EA424383424C
:10ED70004FEAD2328A4108DBFFF734FE08B9FFF7C9
:10ED80007FFEBDE83840FFF74DBF38BDE80D0020DD
:10ED90002DE9F04F9BB00446FFF722FC002800F05D
:10EDA0007D812046FFF71CFC0546002800F091817C
:10EDB000067A002E00F0C380AE4EAF4F3478D0E913
:10EDC00004830493002C43D1D0F80490DFF8C4A24C
:10EDD000DFF8ACB220F050FE07EBC9034FF0010999
:10EDE0000593A64909FA00F306932246059B4FEACC
:10EDF000521E53F82E0002F01F0309FA03F31842C3
:10EE000017D0886910B1069F384212D0DAE9007035
:10EE1000B1F912C01CEB070740EBEC70B845049F3A
:10EE200077EB0000A1BF5BF82E0003434BF82E30B8
:10EE300001340132262A01F12C01D7D1002C00F037
:10EE400048813278042A28D1FFF7ECFE002540E003
:10EE500004994046FFF7C6FD6B68894957F833208F
:10EE60000C6814400C60DB00002C3ED13B444A6827
:10EE70005B6813404B60002B40D05A1E12EA030718
:10EE80000CBF01340234DCE73B444A685B681A403B
:10EE90004A603278042A18D002247A4F07EB4217CE
:10EEA000531C29460AA83D460AAF337020F008FCDF
:10EEB0000FCF0FC597E80F0085E80F000225FFF779
:10EEC000B1FE34B9FFF7DCFD33E0FFF7ABFE002500
:10EED00002246B490B6813F001032ED1012001338A
:10EEE000262B10D16FF0150523E0621E2242CBD1F4
:10EEF0003B444A685B6801241340BBE73278042A2C
:10EF0000CBD11D46DBE75A0951F8227003F01F02EE
:10EF100000FA02F23A42E2D0584A2C2101FB0322C5
:10EF2000B2F910103278914203D1574A012C138064
:10EF3000C8D028461BB0BDE8F08F0023ECE7FFF7F0
:10EF40009FFD6B6807932B690593504B504F1B78BF
:10EF500006900993B846099B9E420CDB069B012B49
:10EF600040F3B780294612A820F0AAFB12A820F08F
:10EF70009FFB0225DDE77B88B7F800C004933F4B79
:10EF80002C2202FB0C334FF0000EB3F91030089323
:10EF9000B946F2460124049B534513DC8837BEF181
:10EFA000000F79D0049A882303FB0683013A5A8024
:10EFB000324B2C2202FB0C3393F82830FBB114BBEC
:10EFC0000125B6E7BEF1000F10D009F1080BBBE830
:10EFD0000F00A9F118040FC49BE80F0084E80F008C
:10EFE00000240AF1010A09F12009D4E7D9F8143004
:10EFF000079A9A4214BF00244FF0010EF1E7049BD8
:10F00000089A934218D10CF13B021392059A059984
:10F01000D217CDE9141219492C2202FB0C1CDDE990
:10F02000140100238DE80300129302930022139B26
:10F030000CF11C0020F0C1FA002CC1D0134B1C783D
:10F04000013CE4B2A6421C7008D004EB04118822F3
:10F0500008EBC10102FB068028F0A5F98822544381
:10F06000002108EB040028F0C6F94FF6FF7328F8DA
:10F070000430A5E77D720020C031002034820300F7
:10F080007033002040100020660900207C720020B0
:10F09000200E00200800002001365CE7204600F02A
:10F0A0009BFAB0B1204600F097FA837A8BB143689F
:10F0B000E03B072B02D80378072B0AD0064BD0E998
:10F0C0000412D3E9000388429341BCBF034BC3E958
:10F0D000001200252DE700BF0000002008000020DE
:10F0E00030B58FB01422002109A828F084F9214DF1
:10F0F0004FF47A740022002309A928461DF08EFDE2
:10F10000002835D1099B0490059327F0B5FDA0FB9D
:10F11000040304FB0131C00B9DF8343040EA414048
:10F12000C90BCDE9060113F0010118BF01210291BD
:10F1300006AA92E803008DE8030004AB0CCB0AA8F2
:10F1400020F03BFA0D9B012BD4D9C3F35E044FF49E
:10F15000004540F2E73000214FF47A720023E5FBCE
:10F160000401FCF7CDFF02460B4603481EF034F9BC
:10F170000FB030BD080B00201000002030B58BB060
:10F1800001AC84E80E004268059294E8070006ADE1
:10F1900085E80B000F9A9DF8383043EA4203099343
:10F1A00009480022002305A91DF0DAFC002804DB31
:10F1B000064827F0E0FB10B100200BB030BD03483B
:10F1C000FFF78EFFF8E700BF080B002010000020BB
:10F1D00070B500250646056000F084FB044678B152
:10F1E00000F00EFE30B900F045FC01237060337072
:10F1F000304670BD064B1B78012BF4D02846F5E74E
:10F2000000F0FEFD0028EED023462046EEE700BFCA
:10F210007E72002008B5094B1B7823B1012B06D064
:10F220006FF0850008BDBDE8084020F031BDFFF754
:10F2300091FBBDE80840013000F0C6BC78330020E7
:10F2400008B5094B1B7823B1012B06D06FF0850060
:10F2500008BDBDE8084020F023BDFFF77FFBBDE8F7
:10F260000840013000F0D6BC7833002037B508499B
:10F270000848094D6C4627F072FB2046FFF7A8FFAF
:10F2800094E8030085E80300002003B030BD00BF10
:10F290009DF20000C010002078330020024903488E
:10F2A000012202F061B800BF7E7200201CB503008D
:10F2B00082B00DF1080C0CE9030019469DF80030EE
:10F2C00010461BB1012B05D0054A00E0054A02B0EB
:10F2D0001EF056BF019B044A02B01EF051BF00BF92
:10F2E0003BB5030030B5030034B5030030B589B039
:10F2F00001AD0F4C2846FFF76BFF94E80C0095E832
:10F30000030020F02DFB80B920F051FB95E80300AD
:10F310000A2305AA84E80300FFF7CAFF94E8030064
:10F3200003AB83E8030000F023F809B030BD00BF51
:10F330007833002070B50C4615460B4900221E4656
:10F3400021F078FC08B9002070BD012C08D10749D4
:10F3500022463046A8470028F6DDFFF7C7FFF2E750
:10F360006FF01500F0E700BF26B503007E720020A5
:10F370007FB56B4683E8030093E80300002206ABE9
:10F3800003E90300039202A8034A029220F090F9D5
:10F3900007B05DF804FB00BFC088030030B585B03E
:10F3A00078BB11B9002005B030BD1848184D016870
:10F3B0002C6841F00103036032B344F0010099422C
:10F3C00028601BD04FF48073ADF800308DF8022018
:10F3D00027F052FC4FF47A72A0FB020302FB0131CA
:10F3E000C00B40EA4140C90BCDE9020104AB13E96F
:10F3F0000F0005B0BDE8304000F0BCB88442E1D158
:10F40000D0E76FF01500CEE79942F8E758340020B6
:10F410005C340020014B196820F024BB58340020D4
:10F42000352913B50C4602D9002002B010BD0028C2
:10F43000FAD101A8FEF750FF0028F5DB8442F3DA89
:10F44000019B53F82430352BEED802480C2202FBE6
:10F450000300EAE7CC88030073B50F4B06460C4661
:10F4600015461AB10D4A126843F8212053F82410AA
:10F47000002020F0F7FA58B1DDE906230021CDE99C
:10F48000002330462B46224620F000FB002801DDF9
:10F490006FF0850002B070BD80330020583400202A
:10F4A0002DE9F04F0C252DED028B314F45438DB0EA
:10F4B00000EB4006044678599DED188B894690462E
:10F4C00007EB860620F035F800284FD02046FFF7DE
:10F4D00023F804F1360A079000247859CDE9084A48
:10F4E0008DED0A8B20F025F800283FD08268D2F8F5
:10F4F00010B0BBF1000F39D0CDE90389079B02930F
:10F500000DF1280999E803008DE803000DF12008AA
:10F5100098E80C003046D847A04227DB2046FFF78A
:10F5200079FF80F0010B5FFA8BFB7859CDE9084A2F
:10F530008DED0A8B1FF0FDFF30B96FF015000DB097
:10F54000BDEC028BBDE8F08F83685C6914B96FF085
:10F550008500F4E7CDF808B099E803008DE80300D2
:10F56000304698E80C00A0470028E8DB0020E6E7DA
:10F57000B802002010B58AB06C4684E80F00002362
:10F580000593064B049394E80F000AAC04E90F00BE
:10F5900004A820F08DF80AB010BD00BF548B030002
:10F5A00084B030B589B00CAC84E80F00002301931F
:10F5B0000CAD084B00930FCD02AC0FC495E80300CF
:10F5C00084E80300684620F073F809B0BDE83040D5
:10F5D00004B070475C8B03000268034B9A420CBF77
:10F5E00008300020704700BF5C8B03007FB56B467E
:10F5F00083E8030093E80300002206AB03E903005D
:10F60000039202A8034A029220F052F807B05DF874
:10F6100004FB00BF608B0300074B1A78074B82B0D6
:10F62000162102FB013301938DF8002002AB13E990
:10F63000030002B0FFF7DABF7F7200208072002063
:10F6400002490348012201F08FBE00BF7F720020F3
:10F65000CFB5030008B5002003F0AAFD002802DAA8
:10F6600010F1780F07D1044821F0E1FA034804496A
:10F6700027F075F9002008BD40030020F01000209D
:10F6800041F6000070B503788AB004460E4607AD17
:10F69000032B20D8DFE803F002191B1D114928466F
:10F6A000FCF752FD059563780493A3780393E37800
:10F6B00002932379019363790093A3790A4A1E2167
:10F6C00030461EF05DFD0AB070BD0849E7E7084905
:10F6D000E5E70849E3E7084A0A2128461EF050FDFD
:10F6E000E0E700BFE2B503000BB60300E9B5030095
:10F6F000F0B50300FAB5030004B6030010B590B0EE
:10F70000044622F0F4FD6946FFF7BCFF08A9204635
:10F7100005F012FC9DF82130012B14D10B481DF08F
:10F72000EDFD204622F0E3FD094B19780F22162348
:10F7300013FB012307490722194427F0E7FC10B9FE
:10F7400005481DF0DBFD10B010BD00BF5C030020BC
:10F750007F720020807200206C0300202DE9F041B0
:10F760008AB00D4616461F496A4604461F4621F0D8
:10F7700061FA08B30098F8B10A2201A91EF054FDFD
:10F78000019B1B785BBB162D29D1C4B2042C26D853
:10F79000DFF85C806C432A4608EB04013846B0472A
:10F7A000002806DD04F10F0002A94044FFF76AFFBC
:10F7B00000200AB0BDE8F0810B496A46204621F0DE
:10F7C00039FA0028F4D0009B002BF1D1012D06D18D
:10F7D00006492A463846B04700EAE070E9E76FF08C
:10F7E0001500E6E72EB60300D3B503007F720020B4
:10F7F00080720020042808B50DD80F22162313FBB1
:10F800000023064806490722184427F07FFCB0FA77
:10F8100080F0400908BD0020FCE700BF8072002096
:10F82000CEB70300014B1878FFF7E4BF7F720020CA
:10F830002DE9F0410C468EB005464FF0160806A99A
:10F84000204615FB08F7FFF71DFF0D4E216807F155
:10F850000F029319B150A2889A80A2799A7109492E
:10F860002A4601A81EF0B8FC4246F11901A801F091
:10F870007BFD05481DF042FD0EB0BDE8F08100BFE4
:10F880008072002037B603006C03002010B50428F6
:10F8900088B002D9002008B010BD0F23162414FB35
:10F8A00000340E4B0E491C440722204627F02EFC44
:10F8B0000028EFD02146002005F0ECFA044600288D
:10F8C000E8D0694605F038FB204604F0B7FF9DF804
:10F8D0001C00831E58425841DDE700BF80720020A3
:10F8E000CEB70300014B1878FFF7D0BF7F7200201E
:10F8F000F0B58DB0FFF796FF98B9FFF7F3FF80F0F2
:10F9000001035B00DBB2214D2A7803EB0213112BBC
:10F9100009DC022B2DD0102B23D0002420460DB063
:10F92000F0BD0223EFE7202B1BD0122BF5D104F002
:10F93000F5FA00232B7004460028EFD1144F0FCFA7
:10F9400002AE0FC63B68134933600322009423467E
:10F9500002A804F0B1FA04460028DFD102232B707C
:10F96000DBE704F0DBFA00232B7004460028D4D038
:10F97000D4E7074E0FCE07AC0FC4336823600023D3
:10F9800004490093032207A8E3E700BFEE720020BA
:10F99000907C03007C03002030B591B0054622F036
:10F9A000A6FC69460446FFF76DFE08A9284605F047
:10F9B000C3FA9DF82130012B05D1FFF733FF214613
:10F9C00018B903F0ABF911B030BD034B1878FFF74D
:10F9D0002FFFFFF78DFFF6E77F72002030B591B063
:10F9E0000D4608A9044605F0A7FA9DF82130012B21
:10F9F0000BD1204622F07BFC6946FFF743FE0F4BFC
:10FA000000221A701DB1FFF773FF11B030BDFFF770
:10FA10006FFF204622F06BFC094B19780F2216234A
:10FA200013FB012307490722194427F06FFB002825
:10FA3000EBD105481DF062FCE7E700BFEE72002045
:10FA40007F720020807200206C03002008B50648F9
:10FA500005F0E0F9054805F073FB054805F08AFB61
:10FA6000FFF746FF002008BD20030020040300200C
:10FA7000F4020020014B1878704700BF7F7200200D
:10FA800010B50A4B0A491A7816240F2314FB0234C6
:10FA9000084B1C440722204627F038FB28B121469A
:10FAA0000020BDE8104005F0F5B910BD7F720020C0
:10FAB000CEB70300807200201FB54D240294044C81
:10FAC0000194BDF81840009423F0B5FD04B010BDBA
:10FAD00063B6030007B5064B0093064906480523A5
:10FAE0004FF440721DF010FC002003B05DF804FBE1
:10FAF000648B0300D073002020110020F0B5164E57
:10FB0000164F89B000220023694630461DF086F862
:10FB1000054608B109B0F0BDFFF7B2FF0446002862
:10FB2000F8D01822294602A827F065FC08230DEB1F
:10FB3000030120460397CDF810D0ADF8143007F03C
:10FB40003DFA013003D10221204622F091FB2046EC
:10FB500004F074FED6E700BF680B0020D08B0300D2
:10FB60002DE9F041164FDFF85C808AB001AE00222B
:10FB70000023314638461DF051F8054610B10AB051
:10FB8000BDE8F081FFF77CFF04460028F7D018227B
:10FB9000294604A827F02FFC0C2304A92046CDE910
:10FBA0000586ADF81C3007F009FA013003D10221B7
:10FBB000204622F05DFB204604F040FED7E700BF60
:10FBC000380B0020208C030037B5054640F6CD42A7
:10FBD000014600230C481CF0C3FF044678B110F125
:10FBE0000B0F09D100220023694607481DF016F8C3
:10FBF0002846FFF7E9FF0446204603B030BD03491D
:10FC0000034826F07BFEF7E7680B0020A4030020E2
:10FC10002011002030B5054685B040F6CD420146A2
:10FC200000230D481CF09CFF044678B110F10B0F27
:10FC300009D10022002301A907481CF0EFFF284644
:10FC4000FFF7E8FF0446204605B030BD03490448ED
:10FC500026F054FEF7E700BF380B00209403002085
:10FC6000201100201FB50023CDE90233044B8DF88D
:10FC70000C0001A801931FF01BFD05B05DF804FB0B
:10FC80009C8C030008B500F02DF9BDE8084001493F
:10FC900026F034BE5C04002013B5114B1C68A36829
:10FCA0003021DB6820469847C0B9A3686A461B69C3
:10FCB00030212046984788B90A4C0098237883421F
:10FCC00004D0C0B22070FFF7CDFF38B901F01EFBA1
:10FCD0002378984202D0184601F01EFB02B010BDF6
:10FCE00060340020F072002007B5094B186826F038
:10FCF00064FB48B14FF4F0120023CDE9002305481E
:10FD0000002200231EF0B4F903B05DF804FB00BF2D
:10FD100060340020080A002008B5FEF73BFC10B94B
:10FD20006FF0850008BDFEF741FA38B10138C0B266
:10FD30000128F5D8034826F0E6FF01E0FFF7D4FFDD
:10FD40000020EFE7080A002008B508481CF05AFD1B
:10FD5000074A106010B96FF0120008BD26F02DFBA5
:10FD60000028F8D0FFF7C0FF0020F6E7EFB6030049
:10FD70006034002008B5044800F0E2FF002818BFF6
:10FD80006FF0150008BD00BFC1FD0000014B1878E1
:10FD9000704700BF8E090020084B1B780B2B4FF0DB
:10FDA00001000AD8984010F4CD6F05D110F4016F0E
:10FDB0000CBF012000207047022070478E090020F0
:10FDC0000A2808B5024613D00A4B0B491870FFF7F2
:10FDD000E3FF02280AD10B78032A08BF43F001038E
:10FDE0000B70BDE8084005481DF088BA0023F7E70E
:10FDF00008BD00BF8E090020F17200206C040020B5
:10FE000008B5FFF7C9FF022806BF034B187800208A
:10FE100000F0010008BD00BFF172002010B50948D4
:10FE2000094C1CF0EFFC206048B1084B08494D22FA
:10FE300002F02CFB206821F038F9002010BD6FF093
:10FE40001500FBE7F7B6030064340020A48C030020
:10FE5000FDB6030038B504460D46FFF797FF0B28A3
:10FE60000BD8DFE800F01E1E0A0A1E060A0A0A0A5C
:10FE70000A1EBDE8384000F041BF4FF476720023FF
:10FE800009481DF061F809482146006800232A4608
:10FE900021F015F9044610B103481DF01BF8204667
:10FEA00038BD6FF01204FAE7B00B00206434002074
:10FEB00001481DF00FB800BFB00B002007B5064B7E
:10FEC0000093064906480A234FF440721DF01CFABD
:10FED000002003B05DF804FBBC8C0300D07600204A
:10FEE00008120020004870470812002010B5094C85
:10FEF0000A44914200D110BD11F8013B584003095A
:10FF00000001E35CC0B2434018091B01205CDBB276
:10FF10005840EEE762B70300014B1B68184700BF6B
:10FF20007C04002030B585B004460D461022002127
:10FF3000684627F060FA02238DF802302A46044B07
:10FF40000193214668461EF071FA05B030BD00BF2E
:10FF500019FF000080B505460E46174698461DF06D
:10FF6000A9FD034627F018FBDFF81890044649F86E
:10FF70000030424630463946A84754F8090001F09F
:10FF8000CBFD00BF0800000008B50446EFF3118365
:10FF9000202383F31288BFF36F8F19F0F5FD2046FD
:10FFA00001F0A8FD024820F057F820F099FFFCE787
:10FFB00072B703002DE9F047058B044628079046E9
:10FFC00011D4022905F0070540F0CC80204620F02E
:10FFD000F1F878B10138218B042811D8DFE800F05E
:10FFE000C2106D85950001290CBF45F0100545F044
:10FFF0002005258388F31188BFF36F8FBDE8F08754
:020000021000EC
:1000000001F0070AAA4500F0A5800027B9463E4640
:10001000A368002B00F0BC8041F00801218388F325
:100020001188BFF36F8FA168002900F0BA800D68B6
:10003000002900F0B680D1F80480334652462046AD
:10004000C047002D76D02B6829461D46F0E701F009
:1000500007035A1F012A1BD8002221F00701062B93
:10006000276889B2C4E9002209D13B4603E0628BCC
:10007000013262831B68002BF9D141F00201218318
:10008000204620F097F800287AD041F0200176E051
:10009000042B0AD121F0070189B22183204620F0E8
:1000A00089F810B141F020012183218B01F0070A6A
:1000B000AA454FD00027B946AAE7236921F00701D6
:1000C00041F00601062DD3F8009021832DD1B9F11E
:1000D000000F3FD041F00801218388F31188BFF35E
:1000E0006F8F3A492046C84729E021F0070123696C
:1000F00041F0040189B2042DD3F804902183E6D0A5
:1001000000273E464FF0040A82E721F007012369E9
:1001100041F0050189B2052DD3F808902183D6D08E
:1001200000273E464FF0050A72E700273E464FF093
:10013000060A6DE72B4687E7B9F1000FD1D1EFF33F
:100140001188202383F31288BFF36F8F238B23F052
:1001500008032383258BEA062ED525F0100323837D
:1001600005F007056669218B002EBFF670AF0023EE
:100170002768C4E9003321F0070141F00101218320
:10018000218B01F0070AAA454FF000097FF440AF28
:10019000002F9CD041F00801218388F31188BFF320
:1001A0006F8F002FC8D03D683946334652462046EF
:1001B00020F02CF82F46F4E7AB067FF51BAF25F0B7
:1001C0002003238305F0070500E700BF3902030081
:1001D0002DE9F7430F4606460821C06ADFF8509024
:1001E00020F077F93C68241A80463C6004EA09054F
:1001F000AC4203D8002003B0BDE8F08308236A4670
:100200002146304620F0FDF80028F4D169463046FA
:1002100020F069F940B1BDF80230BDF804203C601F
:1002200005EA090513441D44A4EB0804E0E700BFF8
:100230000000FFFF73B504460821C06A124E20F08B
:1002400048F94FF6FF726368ADF800208DF806207C
:10025000A289191833401344181A002560606846B3
:10026000ADF80210ADF8045020F02AF96946204696
:1002700020F0F9F92046211D20F0FCF8636828469B
:100280003340A36002B070BD0000FFFF2DE9F047CE
:10029000044688B000F11407384626F098F9A06AA1
:1002A0008368DB689847E06228B96FF01505284637
:1002B00008B0BDE8F087A06A8368DB6898470368E8
:1002C000013B1F2BF1D8A06A216805AA24F00BFB83
:1002D0000028EAD1A589002DE7D0069BB5FBF3F2F3
:1002E00003FB1255002DE0D1E389012BDDD9E36A30
:1002F000009593F805904FF0FF334FF0FF323846EA
:100300001CF0EEFCE06A082120F0E3F8A84606465F
:10031000E3891FFA85FA534508D8E389434523D179
:1003200038461CF055FD6FF02C05C0E7A1892B0461
:10033000891B13FA81F14A4608232046009120F0D8
:100340006EF878B16946204620F094F808F101086B
:10035000009908234A4620461FFA88F820F05FF8E3
:100360000028DAD00135D3E753450BD10099082393
:100370004A46891B204620F052F818B969462046A3
:1003800020F078F869462046FFF722FF054618B1AD
:1003900038461CF01DFD8AE7009B63604FEA134856
:1003A0004FEA0848C4F80880D4E9011399420FD3F2
:1003B000082301AA204620F024F805460028E7D1AA
:1003C00001AB13F8012B914533D10135082DF8D13C
:1003D00063681B0C1B0469462046009320F04AF812
:1003E000A38900994A46204620F019F8051ECFDB64
:1003F000636876D006EB03084FF6FF79A389CDF842
:1004000000801FFA88F29B1B9A422ED3002361685A
:10041000002B43D0090C090400912046694620F0C6
:1004200029F80099204620F032F80546002D74D0B6
:10043000AEE701A9204620F056F8626810B9921B79
:100440006260B1E7BDF80850BDF80610E06AC4F874
:100450000880294420F03DF840449042A060EED14D
:10046000002DECD06FF01C0568E0082303AA41467C
:1004700020461FF0C6FF0546002889D103A9204663
:1004800020F031F830B1BDF80C304B4502D1BDF849
:1004900010300BB1B044B1E70123B8E720461FF09C
:1004A000F6FF054600287FF473AF6368264AA189EA
:1004B00013400B44A3EB460363601340A360204644
:1004C00020F0F9F8B1E75B1A4A4620461FF0A7FF73
:1004D000051EFFF65DAF08D0E26AA36812681344F8
:1004E000A360D4E901318B42EDD86168A38901EBA7
:1004F00046029A429AD1DFF85080A26801EA0803C6
:100500009A4293D020461FF0C2FF054600287FF490
:100510003FAF636803EA0803A360A389A288A3EB43
:1005200046039A4206D038461CF052FC012323743D
:100530000025BCE6204620F0A7F8054638461CF00A
:1005400047FC002DF2D0B2E60000FFFF014B036034
:1005500000207047C48C030070B5104B1C680D461A
:10056000B4B10F4B196800238B4202DB6FF001001E
:1005700070BD224612F8106B864202D00133144639
:10058000F2E7E06825F019FF28B12C600020EFE7C2
:100590006FF00C00ECE76FF01200E9E78004002038
:1005A000C48C030010B588B0436802938368C068A8
:1005B000CDE903320A680023CDE906230C4601AADF
:1005C0000449059324F093F9079808B9059B236023
:1005D00008B010BDC50A0300F0B40C4B0C4E5F6AA6
:1005E0000C4BB34203D36FF08500F0BC70475D68DD
:1005F000BD4209D31C693CB195F802C00579AC45F0
:1006000002D12346F0BC18472433EAE768340020BF
:10061000E40D0020C00D00202DE9F047134CDFF859
:100620005080DFF8509005460E461746444503D3E8
:100630006FF08500BDE8F0876268D9F824309A42EF
:1006400012D3A36983B190782979884205D13A46BB
:1006500031462846BDE8F04718475279012A03D1B0
:100660003A463146284698472434DFE7C00D00203B
:10067000E40D0020683400202DE9F0410B4CDFF838
:10068000308005460E461746444502D36FF085007C
:1006900009E063690BB92434F6E73A463146284647
:1006A00098470028F7D1BDE8F08100BFC00D0020B9
:1006B000E40D002010B5044624F00BF810F1780F7B
:1006C00000D050B9054A204620F037FAD2F8C4309D
:1006D00023EA0003C2F8C430002010BD68340020B3
:1006E000024B00221A605A60704700BF2335002079
:1006F00070B50B4B0B4CA34201D3002070BD196A9F
:100700001E7F00220439D5B2AE4201D82433F2E76D
:10071000013211F832508542F5D10120EEE700BFD9
:10072000C00D0020E40D002008B509480378C3F38C
:1007300041130A3350F823303BB100F1080200F1B5
:1007400010019847C043C00F08BD1846FCE700BF22
:100750006834002004282DE9F14FDFF8A09004460A
:100760000F4616D001282DD1DFF88C8098F8B930CB
:1007700043B300F06DFD1F4D4D4520D2D5F820B09C
:100780004FF0000A2B7F5FFA8AF6B34204D8243573
:10079000F2E7FFF7A5FFE7E70BEBC6060AF1010A50
:1007A000307923F096FF0246307920F0C6F9D8F868
:1007B000C430002A23EA0003C8F8C430E2DA002378
:1007C00088F8B9300B4D4D4508D30B4B1B6A6BB104
:1007D0003946204601B0BDE8F04F1847EB681BB121
:1007E0003A462146284698472435ECE701B0BDE853
:1007F000F08F00BFC00D002068340020E40D002001
:1008000073B5C4B263060D468DF8074007D0204685
:10081000FFF76EFF78B10D4B93F8BA0058B10B4E4D
:10082000204655B117F05CF8F3691BB10DF10701D3
:1008300008209847012002B070BD17F079F8F369DD
:10084000002BF7D00DF107010920F2E768340020F2
:1008500073B586788DF80060037942791C4C43EAC1
:100860000223ADF80230C378304603F003038DF85D
:10087000043020F062F9D4F8C430184205460BD099
:10088000304600F0C7FC3046FFF714FF26F0C5F8ED
:1008900010B996201DF0CCF8684616F0FDFF10F157
:1008A000780F03D010B1002002B070BD9DF8000099
:1008B00017F07AF810F1780F01D00028F3D1D4F8AE
:1008C000C43001202B4384F8B900C4F8C430EBE7EE
:1008D000683400202DE9F047A34EB36904460F4663
:1008E0001546FBB9237803F01F03012B00F09D8010
:1008F000022B00F0048133BB94F900002A68617870
:10090000002834DA062912D008292BD0D9B90123BE
:100910001370517096F8C3305B0043F001031370FD
:1009200002232AE198470028DCD100200DE06288EC
:10093000100A011F0129844605D9072803D8716AC6
:10094000D2B20C781CB96FF01500BDE8F0874E7874
:10095000664503D19A4200F00B8101332144F0E750
:100960000B780AE196F8BA301370012305E10139DA
:100970000829E8D801A353F821F000BF150A0100A7
:1009800047090100230A010047090100A1090100EC
:10099000470901004709010047090100AD090100AD
:1009A000A07816F067FF0028BFD0CCE76388756A8F
:1009B00063BBFFF795FE638886F8BA30F369002BB6
:1009C000B3D06A4903209847AFE76B78042B10D067
:1009D000052B11D0022B04D16F796388BB4208BF6D
:1009E00001202B781D442B78002BEED10028AAD0B3
:1009F000DFE795F80380F4E76388BB42F1D1B8F1F3
:100A0000000FEED12846FFF723FFEAE7FF2700207B
:100A1000B846E8E76388012B95D1002386F8C330F8
:100A200083E76388012B8ED1F8E796F8BA30D5F8C2
:100A300000C0002B87D0756AA38894F804E02A468A
:100A4000107800283FF47FAF5178022904D192F842
:100A50000480F04500F293800244F1E78CF8002016
:100A60008CF80120396060E7154494E00B2A7FF48C
:100A70006AAF00274FF0FF08C146BA4606E06B7820
:100A8000042B0FD0052B21D02B781D442B78002B65
:100A9000F5D1F36913B1514607209847002F7FF431
:100AA00044AF50E795F80280A38895F803909845E5
:100AB000EAD163889945E7D1B8F1070F1CD806EB56
:100AC0000803AA4683F8BB900127DDE7A3884345C6
:100AD000DAD1A3784B450AD0AF78384600F09AFBBC
:100AE0003846FFF7E7FDB0FA80F77F09CCE72846E4
:100AF000FFF7AEFE0746C7E7AA460027C4E794F90A
:100B000000206378002A18DA002B7FF41CAF2479C8
:100B10002D6863060AD02046FFF7EAFD00283FF45F
:100B200012AF96F8BA30002B3FF40DAF294620469D
:100B300016F01EFF00236B70F2E6012B08D0032B8A
:100B40007FF401AF6388002B7FF4FDAE012103E049
:100B5000618800297FF4F7AEA088FFF751FE0028D6
:100B60007FF4E3AEEFE600BF6834002022350020BA
:100B7000022829607FF4F4AE4B883B60D5E694F9F7
:100B8000000062780028BFF671AF002A3FF466AF1C
:100B90000A2A7FF4D8AE2A78002A3FF4D4AE6978C6
:100BA00004297FF461AFA9788B427FF45DAF072BF6
:100BB00096BF9B19002393F8BB308CF80030D4E625
:100BC00013B5164C237DF3B9E268A168019201AB1D
:100BD00080201FF0C0FF019AA3681344A360E3685C
:100BE0009B1AE3606BB962B12369E2889A4208DD1F
:100BF00094F8C82093FBF2F102FB11330BB90123E7
:100C0000237502B010BD00231A46194680202375B3
:100C100002B0BDE8104016F0F1BE00BF68340020FD
:100C200030B585B0002302460D460193002858D107
:100C3000002935D108220B460DEB020123F062FD9D
:100C4000002804DA802016F04BFE05B030BD2A4C97
:100C5000029A2260039A626004F13802A2609DF950
:100C60000820BDF80E302575002AC4E903550ADBBB
:100C7000802B04D9802016F033FE0020E3E713B167
:100C8000C4E90333E1E7FFF74FFD0028DAD0E2883B
:100C900023699A42D4BFE260E360FFF791FFD4E793
:100CA000154CD4E90215002D01AB04DC23F02AFD1C
:100CB0000028CADAC6E72A4623F024FD0028D9DB3B
:100CC000019AA3681344A360E3689B1AE360002BB6
:100CD000BBD104F13803A360FFF726FD0028DCD167
:100CE000B0E78028B1D1044BDA68002AD5D11B7D4A
:100CF000002BD2D1A9E700BF68340020044B93F841
:100D0000C3300BB123F00DBD6FF00C00704700BF76
:100D100068340020054B064A9A62064ADA62064A9F
:100D20001A63064A58629A610020704768340020AE
:100D3000D5080100D9050100790601001906010056
:100D40002DE9F3410446474D47484FF0FF334FF03C
:100D5000FF321BF0C5FF95F8B830002B7BD16B6AD2
:100D600083B142482C62E8616E6A16F061FF16F0AA
:100D70004FFD041E10DA3C481CF02AF8204602B051
:100D8000BDE8F08100F0BEF8FFF7C4FF6B6A002BEE
:100D9000E7D14FF0FF34EEE700F07CFA041EEADB07
:100DA0007378012B5AD1F379002B57D0002668466F
:100DB00085F8C830ADF802308DF804608DF8006019
:100DC00016F06AFD041ED6DB802768468DF8007099
:100DD00016F062FD041ECEDB2549304616F014FFE6
:100DE000041EC8DB2249384616F00EFF041EC2DB83
:100DF000204CDFF8848044451AD3002016F0D4FD3F
:100E0000041EB8DBD5F8C430802043F00103C5F8D8
:100E1000C43016F0C9FD041EADDBD5F8C43043F470
:100E20008033C5F8C430012385F8B8300024A2E728
:100E3000276A0026227FF3B29A4201D82434DAE7E7
:100E400007EBC30257F83310107916F0DDFE0136B8
:100E50000028EFD09DE76FF077048CE76FF0150462
:100E600089E700BF68340020C40A0020550701004C
:100E7000210C0100C00D0020E40D002030B51F4BF7
:100E80008BB005AA03F1100518685968144603C40D
:100E90000833AB422246F7D11B7823701022002181
:100EA00001A826F0A8FA12220021154826F0A3FA7C
:100EB000102101A823F0CAFD00281BDD0828B8BFB7
:100EC0000820093801AB0E491A18002012F8013F1A
:100ED0000AAC04EB131403F00F0328336B44013006
:100EE00014F8144C13F8143C0C7008284B7001F1E2
:100EF0000201EBD102480BB030BD00BF9BB703002D
:100F0000F37200202DE9F04F724B93F800B087B0D8
:100F1000BBF1000F03D0704807B0BDE8F08F6E4CF6
:100F200000264FF0011AB0463546B14623783BB94A
:100F30006A4B02349C42F3D1664A01231370EAE7FC
:100F40006378052B1BD8DFE803F08E03C38E1D39B1
:100F5000402304A88DF810B0ADF812308DF814B00D
:100F600023F0A2FB40B1082304A8ADF8123023F00F
:100F70009BFB08B1ADF812B0BDF81230E3712378D5
:100F80001C44D3E7E378002BF9D1A3786BB108F1C7
:100F900001085FFA88F8F2E76B689C4207D02435B5
:100FA0004F4B9D42F8D30020B6E74E4DF8E7AB68B3
:100FB000002BECD0414620469847E8E7002DF2D0C0
:100FC00000222B7F9A42EED2296AA07801EBC2015F
:100FD0000B79984201D00132F3E70127E07800F065
:100FE00003008DF81400207994F805C040EA0C2025
:100FF000ADF8120094F902000028FBB228DA07F1DC
:1010000010004FF0010C0CFA00F010EA0A0F26D184
:1010100043F080008DF8100004A8CDE9021301927E
:1010200023F042FBDDE90121039BC0B99DF81020AC
:10103000A27012F0800F18BF10330A7118BFDBB214
:101040004FF0010214BF9A40BA404AEA020A96E7FA
:101050000120B84010EA0A0F01D11846DAE701373B
:10106000102FBBD1B7E7032E1AD1FFF707FF0746B2
:1010700050B1FBF771F8024630B11028A8BF10221A
:101080003946A01C26F08FF923786FF00201E21890
:10109000091B04EB5303D14213D50136F6B26EE7B8
:1010A000002EF1D1B9F1000F3FF47DAFA4EB09039D
:1010B00089F80230C3F3072389F8033089F80480E4
:1010C000EBE702F801BC13F8010902F8020DE2E7B0
:1010D000A14654E7F2720020440D0020C00D00200C
:1010E000E40D0020C00D002010B5094B00211A4668
:1010F0001C78844205D15C681CB1482303FB0120A5
:1011000010BD0131042903F14803F1D10020F7E7B4
:10111000343500202DE9F34150F8303C10F8346CA0
:10112000103304460AD1036950F8282C980736D5A5
:10113000D2B9590715D5002344F8303C54F8303C57
:1011400010330BD054E9097554F81C8C25F065FC5C
:1011500000284FD02E48214625F0D0FB02B0BDE834
:10116000F08143F00403236154F82C1C01AB30469A
:101170001FF0F1FC10B16FF01503DDE7019A54F890
:101180002C3C134444F82C3C54F8283C9B1A44F85B
:10119000283C54F8243C134444F8243CCEE754F84B
:1011A0002C1C01AB304616F0A5FC0028E3D1019DB4
:1011B00054F82C3C2B4444F82C3C54F8283C5B1B42
:1011C00044F8283C54F8243C2B4444F8243C002D9B
:1011D000B1D0304616F032FDB5FBF0F303FB1055ED
:1011E000002DA8D154F8283C002BA4D0304616F08E
:1011F000C9FCA3E744F8200CA4F118001BF06AFE18
:10120000002DABD0424639463046A847A6E700BF7E
:10121000A02E002010B5EFF31184202383F3128851
:10122000BFF36F8FFFF760FF50B14368103307D1F2
:101230006FF08B03436000F13401044825F05EFB3E
:1012400084F31188BFF36F8F10BD00BFA02E002064
:10125000F8B50E4C04252027EFF3118687F312888A
:10126000BFF36F8F6368103307D16FF08B030848AB
:10127000636004F1340125F041FB86F31188BFF36C
:101280006F8F013D04F14804E6D1F8BD34350020EC
:10129000A02E002070B50A4C0A4E0025314620468B
:1012A00025F001FB0122A4F118001146013525F0BB
:1012B00077FA042D04F14804F0D1002070BD00BF7E
:1012C00068350020151101001FB507240294044C55
:1012D0000194BDF81840009422F0ADF904B010BD9F
:1012E0008F09002010B5084C86B024788DF817407F
:1012F000012402940DF117040194BDF820400094DC
:1013000022F099F906B010BD96090020014B18781B
:10131000704700BF9609002000B589B064288DF899
:10132000070019D80E4B18221870002102A826F0C9
:1013300062F80C4B03930DF10703049302A90123F8
:101340000020ADF8143005F039FE10F1800F08BF11
:10135000002009B05DF804FB6FF01500F9E700BF4D
:1013600096090020A88D03002DE9F0410F4B1C6861
:1013700005460E461746ACB14FF0FF324FF0FF3333
:101380000B481BF0ADFC63683246D3F80880294651
:101390003B462046C047044605481BF019FD204641
:1013A000BDE8F0816FF00104F9E700BF543600207A
:1013B000B00A002000230360044B5A6812B9C3E945
:1013C0000000704710605860704700BF583600201A
:1013D000014B1860704700BF5436002030B585B00F
:1013E00000230546CDE9023301904FF0FF330C484E
:1013F0004FF0FF321BF074FC0A4B1C684CB92846B6
:1014000000F0D0F8044606481BF0E2FC204605B088
:1014100030BD636820461B6801A998472468EDE742
:10142000B00A0020583600201FB5CDE90101039213
:101430004FF0FF330A484FF0FF321BF051FC094BCD
:101440001C682CB906481BF0C3FC204604B010BD34
:10145000636820461B6801A998472468F1E700BF2C
:10146000B00A002058360020024B0022C3E90022B7
:10147000704700BF58360020024B0022C3E900220B
:10148000FFF7F2BF60360020F8B51C4C1C4E054635
:101490000F46B44212D31B4E1B484FF0FF324FF0A1
:1014A000FF331BF01DFC34687CB1286854F8181C0D
:1014B000183CFAF73FFED0B1A469F5E72168286827
:1014C000FAF738FEB0B11834E3E700226F60AA6182
:1014D000726805F118033AB9C6E9003300240A48D6
:1014E0001BF076FC2046F8BD13607360F6E76FF0E2
:1014F0001004F4E76FF01004F4E700BFC47B0300AE
:10150000847C030060360020B00A00202DE9F743F8
:1015100007460C4609B100230B601F4DDFF8809091
:1015200000264D450FD31D4B1D6885B355F8188C0B
:1015300001AA41463846183D1FF07CFB10B3D6B9CE
:1015400014BB2E461EE0D5F8008001AA414638465D
:101550001FF070FB50B116B954B92E4606E0316841
:10156000002240461FF066FB0028F5D11835D8E769
:10157000019B2360F1E73168002240461FF05AFBCF
:101580000028DDD1AD69D0E7019B2360D9E7304663
:1015900003B0BDE8F08300BFC47B030060360020C9
:1015A000847C03002DE9F047DFF8B090DFF8B0A0AD
:1015B00080464FF000470026274C3D464C450DD352
:1015C000DAF80040002C42D0183CB8F1000F25D1C9
:1015D00022695ABBA469F5E72F46EDE7B8F1000F81
:1015E00003D122694AB91834E8E72068002241464D
:1015F0001FF020FB0028F4D1F5E76368BB4205DD4E
:10160000AF4209D09D42A8BF1D46ECE7EBD1904701
:10161000002E08BF0646E6E71D46E4E720680022E4
:1016200041461FF007FB0028D2D1D3E76368BB42D5
:1016300005DDBD4209D09D42A8BF1D46CAE7C9D1FC
:101640009047002E08BF0646C4E71D46C2E7AF42DA
:10165000C2D13046BDE8F087C47B0300847C030020
:101660006036002038B50C4D0C484FF0FF334FF07A
:10167000FF321BF035FB2B783BB9FFF7FDFE00F086
:101680006DF8044610B901232B70002403481BF0A9
:101690009FFB204638BD00BF05730020B00A002024
:1016A0002DE9F047048FDFF8B0A0013498B006466A
:1016B0008946A4B200F10807651EADB2B5F5004F2A
:1016C00047D04A2305AA294638461FF0F3F904F506
:1016D0007F543F34A4B28046214601230DF10B0212
:1016E00038461FF0E7F9B8F1000F014610DC00287A
:1016F00010DC338FAB4209D132466B1E22F8383FE3
:101700004FF40041022338461FF0A2F82C46D3E7DD
:10171000002808DC294638461FF068F9214638467B
:101720001FF064F9E5E708F160030DEB03080023FF
:1017300008F84C3C5246CDF8009003AB05A803973F
:10174000ADF810401FF0ACFA0028DFD018B0BDE8AB
:10175000F0870020FAE700BF0F0D03007FB50123DB
:10176000694603200193FEF7F7FE044660BB02AA18
:1017700001A903201FF0C8F9044610B110F10C0FA5
:1017800022D10399B1F5803F23D2009A00239468B7
:101790001846084484421AD30133082BF9D10E4D60
:1017A000A982EB825368AB602846D368EB631FF0D5
:1017B00046FB044640B9094E6E602846FFF7FAFD25
:1017C00028466E60FFF704FE204604B070BD9BB251
:1017D000E5E76FF02004F7E768360020E404002016
:1017E00030BFFFF7FDBF00BF2DE9F0410B4EDFF822
:1017F000348006EB0807CC1B0546324608492046D4
:1018000025F0D1FDA01942460021083C25F0F3FD4A
:101810006C6707F10800BDE8F08100BF0000000020
:10182000847C030008000000054B9A699B689A427B
:101830001FBF044A536843F080535360704700BF92
:10184000FC70002000ED00E0134B9A6A12F0007F5C
:101850009A6A14BF1E201D2012F0807F9A6A18BF5A
:101860001F2012F4002F9A6A18BF212012F4802F33
:101870009A6A18BF222012F4003F9A6A18BF2320E8
:1018800012F4803F9A6A6FEA02426FEA12429A6249
:1018900018BF2420704700BF00ED00E010B5194BC1
:1018A0000246986A9C6A10F4805F14BF17201620C5
:1018B00014F4006F9C6A18BF1820A40509D5986B12
:1018C000986A000404D51AB19A6A22F400429A6216
:1018D00019200C4B9A6A12F4806F9A6A18BF1A206A
:1018E000D2050CD49B6A13F4005F18BF1C20054A74
:1018F000936A43F47F43936200230B7010BD1B2057
:10190000F5E700BF00ED00E010B51C4B0246986AF9
:101910009C6A10F0100F14BF1120102014F0080F53
:101920009C6A18BF1220A40709D5586B986A000654
:1019300004D51AB19A6A22F080029A6213200F4BE2
:101940009A6A12F0010F9A6A18BF142012F0200F41
:101950009A6A18BF1520D40658BF9B6A074B9A6A2B
:10196000920642BF5A6A22F400525A629A6A42F0C0
:10197000FF029A6200230B7010BD00BF00ED00E073
:1019800070B5444B5B689CB00646C3F30803002562
:1019900085F31188BFF36F8F02F07F40B0F17F4F66
:1019A00011D102F00C0008280DD010074CBF0E46D4
:1019B00001250022033B8DF80720032B05D8DFE823
:1019C00003F01E5C60592E46F3E700249DF80730B3
:1019D0009BB96822314602A825F0E5FC099B002D41
:1019E00053D0C3F3080222B96FEA53236FEA4323AB
:1019F000099302A920461FF057FA1CB070BD254B71
:101A0000DA6A9107E1D4DA6A002ADEDBDA6A520088
:101A1000DBD55A69B16942F480725A61BFF34F8FC6
:101A2000BFF36F8F5A6931F8021C22F480725A6139
:101A3000BFF34F8FBFF36F8F4DF60272914209D003
:101A40009A6AD2B242B10DF107010120FFF75CFFA3
:101A50000446BBE73468B9E79A6A12F47F4F05D0B1
:101A60000DF107010120FFF719FFF1E79B6AB3F5BC
:101A7000803FAAD3FFF7E8FEEAE70DF10701002057
:101A8000E4E70DF107010020EDE723F4FF7323F0F5
:101A90000103ADE700ED00E0044B5A6942F010028B
:101AA0005A615A6922F008025A61704700ED00E05D
:101AB000EFF30880EFF3098101B57246FFF760FF8D
:101AC00001BD00BF18F08AF8202080F31188084873
:101AD0004FF40061401880F30988EFF3148002216D
